{
  "contractName": "DragonSwap",
  "abi": [
    {
      "inputs": [],
      "stateMutability": "nonpayable",
      "type": "constructor"
    },
    {
      "inputs": [
        {
          "internalType": "address",
          "name": "",
          "type": "address"
        }
      ],
      "name": "LP_Tokens",
      "outputs": [
        {
          "internalType": "uint256",
          "name": "",
          "type": "uint256"
        }
      ],
      "stateMutability": "view",
      "type": "function",
      "constant": true
    },
    {
      "inputs": [],
      "name": "liquidityPool",
      "outputs": [
        {
          "internalType": "uint256",
          "name": "total_token_1",
          "type": "uint256"
        },
        {
          "internalType": "uint256",
          "name": "total_token_2",
          "type": "uint256"
        },
        {
          "internalType": "uint256",
          "name": "total_LPTokens",
          "type": "uint256"
        },
        {
          "internalType": "uint256",
          "name": "K",
          "type": "uint256"
        }
      ],
      "stateMutability": "view",
      "type": "function",
      "constant": true
    },
    {
      "inputs": [],
      "name": "token1",
      "outputs": [
        {
          "internalType": "contract IERC20",
          "name": "",
          "type": "address"
        }
      ],
      "stateMutability": "view",
      "type": "function",
      "constant": true
    },
    {
      "inputs": [],
      "name": "token2",
      "outputs": [
        {
          "internalType": "contract IERC20",
          "name": "",
          "type": "address"
        }
      ],
      "stateMutability": "view",
      "type": "function",
      "constant": true
    },
    {
      "inputs": [
        {
          "internalType": "address",
          "name": "",
          "type": "address"
        }
      ],
      "name": "token_1_balance",
      "outputs": [
        {
          "internalType": "uint256",
          "name": "",
          "type": "uint256"
        }
      ],
      "stateMutability": "view",
      "type": "function",
      "constant": true
    },
    {
      "inputs": [
        {
          "internalType": "address",
          "name": "",
          "type": "address"
        }
      ],
      "name": "token_2_balance",
      "outputs": [
        {
          "internalType": "uint256",
          "name": "",
          "type": "uint256"
        }
      ],
      "stateMutability": "view",
      "type": "function",
      "constant": true
    },
    {
      "inputs": [],
      "name": "getPoolDetails",
      "outputs": [
        {
          "internalType": "uint256",
          "name": "",
          "type": "uint256"
        },
        {
          "internalType": "uint256",
          "name": "",
          "type": "uint256"
        },
        {
          "internalType": "uint256",
          "name": "",
          "type": "uint256"
        }
      ],
      "stateMutability": "view",
      "type": "function",
      "constant": true
    },
    {
      "inputs": [],
      "name": "checkMyBalances",
      "outputs": [
        {
          "internalType": "uint256",
          "name": "amountToken1",
          "type": "uint256"
        },
        {
          "internalType": "uint256",
          "name": "amountToken2",
          "type": "uint256"
        },
        {
          "internalType": "uint256",
          "name": "LP_Token",
          "type": "uint256"
        }
      ],
      "stateMutability": "view",
      "type": "function",
      "constant": true
    },
    {
      "inputs": [
        {
          "internalType": "uint256",
          "name": "_amountToken2",
          "type": "uint256"
        }
      ],
      "name": "getEquivalentToken1Estimate",
      "outputs": [
        {
          "internalType": "uint256",
          "name": "reqToken1",
          "type": "uint256"
        }
      ],
      "stateMutability": "view",
      "type": "function",
      "constant": true
    },
    {
      "inputs": [
        {
          "internalType": "uint256",
          "name": "_amountToken1",
          "type": "uint256"
        }
      ],
      "name": "getEquivalentToken2Estimate",
      "outputs": [
        {
          "internalType": "uint256",
          "name": "reqToken2",
          "type": "uint256"
        }
      ],
      "stateMutability": "view",
      "type": "function",
      "constant": true
    },
    {
      "inputs": [
        {
          "internalType": "uint256",
          "name": "_amountToken1",
          "type": "uint256"
        },
        {
          "internalType": "uint256",
          "name": "_amountToken2",
          "type": "uint256"
        }
      ],
      "name": "provideLiquidity",
      "outputs": [
        {
          "internalType": "uint256",
          "name": "LP_token",
          "type": "uint256"
        }
      ],
      "stateMutability": "nonpayable",
      "type": "function"
    },
    {
      "inputs": [
        {
          "internalType": "uint256",
          "name": "_LPToken",
          "type": "uint256"
        }
      ],
      "name": "getWithdrawTokenEstimate",
      "outputs": [
        {
          "internalType": "uint256",
          "name": "amountToken1",
          "type": "uint256"
        },
        {
          "internalType": "uint256",
          "name": "amountToken2",
          "type": "uint256"
        }
      ],
      "stateMutability": "view",
      "type": "function",
      "constant": true
    },
    {
      "inputs": [
        {
          "internalType": "uint256",
          "name": "_LPToken",
          "type": "uint256"
        }
      ],
      "name": "withdraw",
      "outputs": [
        {
          "internalType": "uint256",
          "name": "amountToken1",
          "type": "uint256"
        },
        {
          "internalType": "uint256",
          "name": "amountToken2",
          "type": "uint256"
        }
      ],
      "stateMutability": "nonpayable",
      "type": "function"
    },
    {
      "inputs": [
        {
          "internalType": "uint256",
          "name": "_amountToken1",
          "type": "uint256"
        }
      ],
      "name": "getSwapToken1Estimate",
      "outputs": [
        {
          "internalType": "uint256",
          "name": "amountToken2",
          "type": "uint256"
        }
      ],
      "stateMutability": "view",
      "type": "function",
      "constant": true
    },
    {
      "inputs": [
        {
          "internalType": "uint256",
          "name": "_amountToken2",
          "type": "uint256"
        }
      ],
      "name": "getSwapToken1EstimateGivenToken2",
      "outputs": [
        {
          "internalType": "uint256",
          "name": "amountToken1",
          "type": "uint256"
        }
      ],
      "stateMutability": "view",
      "type": "function",
      "constant": true
    },
    {
      "inputs": [
        {
          "internalType": "uint256",
          "name": "_amountToken1",
          "type": "uint256"
        }
      ],
      "name": "swapToken1",
      "outputs": [
        {
          "internalType": "uint256",
          "name": "amountToken2",
          "type": "uint256"
        }
      ],
      "stateMutability": "nonpayable",
      "type": "function"
    },
    {
      "inputs": [
        {
          "internalType": "uint256",
          "name": "_amountToken2",
          "type": "uint256"
        }
      ],
      "name": "getSwapToken2Estimate",
      "outputs": [
        {
          "internalType": "uint256",
          "name": "amountToken1",
          "type": "uint256"
        }
      ],
      "stateMutability": "view",
      "type": "function",
      "constant": true
    },
    {
      "inputs": [
        {
          "internalType": "uint256",
          "name": "_amountToken1",
          "type": "uint256"
        }
      ],
      "name": "getSwapToken2EstimateGivenToken1",
      "outputs": [
        {
          "internalType": "uint256",
          "name": "amountToken2",
          "type": "uint256"
        }
      ],
      "stateMutability": "view",
      "type": "function",
      "constant": true
    },
    {
      "inputs": [
        {
          "internalType": "uint256",
          "name": "_amountToken2",
          "type": "uint256"
        }
      ],
      "name": "swapToken2",
      "outputs": [
        {
          "internalType": "uint256",
          "name": "amountToken1",
          "type": "uint256"
        }
      ],
      "stateMutability": "nonpayable",
      "type": "function"
    }
  ],
  "bytecode": "0x60806040523480156200001157600080fd5b506040516200002090620005ee565b604051809103906000f0801580156200003d573d6000803e3d6000fd5b506000806101000a81548173ffffffffffffffffffffffffffffffffffffffff021916908373ffffffffffffffffffffffffffffffffffffffff1602179055506040516200008b90620005ee565b604051809103906000f080158015620000a8573d6000803e3d6000fd5b50600160006101000a81548173ffffffffffffffffffffffffffffffffffffffff021916908373ffffffffffffffffffffffffffffffffffffffff16021790555060008054906101000a900473ffffffffffffffffffffffffffffffffffffffff1673ffffffffffffffffffffffffffffffffffffffff166370a08231306040518263ffffffff1660e01b8152600401620001449190620007b7565b60206040518083038186803b1580156200015d57600080fd5b505afa15801562000172573d6000803e3d6000fd5b505050506040513d601f19601f820116820180604052508101906200019891906200077a565b600a60000181905550600160009054906101000a900473ffffffffffffffffffffffffffffffffffffffff1673ffffffffffffffffffffffffffffffffffffffff166370a08231306040518263ffffffff1660e01b8152600401620001fe9190620007b7565b60206040518083038186803b1580156200021757600080fd5b505afa1580156200022c573d6000803e3d6000fd5b505050506040513d601f19601f820116820180604052508101906200025291906200077a565b600a6001018190555060008054906101000a900473ffffffffffffffffffffffffffffffffffffffff1673ffffffffffffffffffffffffffffffffffffffff166306fdde036040518163ffffffff1660e01b815260040160006040518083038186803b158015620002c257600080fd5b505afa158015620002d7573d6000803e3d6000fd5b505050506040513d6000823e3d601f19601f8201168201806040525081019062000302919062000735565b6004908051906020019062000319929190620005fc565b50600160009054906101000a900473ffffffffffffffffffffffffffffffffffffffff1673ffffffffffffffffffffffffffffffffffffffff166306fdde036040518163ffffffff1660e01b815260040160006040518083038186803b1580156200038357600080fd5b505afa15801562000398573d6000803e3d6000fd5b505050506040513d6000823e3d601f19601f82011682018060405250810190620003c3919062000735565b60059080519060200190620003da929190620005fc565b50600160009054906101000a900473ffffffffffffffffffffffffffffffffffffffff1673ffffffffffffffffffffffffffffffffffffffff166370a08231306040518263ffffffff1660e01b8152600401620004389190620007b7565b60206040518083038186803b1580156200045157600080fd5b505afa15801562000466573d6000803e3d6000fd5b505050506040513d601f19601f820116820180604052508101906200048c91906200077a565b60008054906101000a900473ffffffffffffffffffffffffffffffffffffffff1673ffffffffffffffffffffffffffffffffffffffff166370a08231306040518263ffffffff1660e01b8152600401620004e79190620007b7565b60206040518083038186803b1580156200050057600080fd5b505afa15801562000515573d6000803e3d6000fd5b505050506040513d601f19601f820116820180604052508101906200053b91906200077a565b6200054791906200083b565b600a60030181905550670de0b6b3a7640000600860003373ffffffffffffffffffffffffffffffffffffffff1673ffffffffffffffffffffffffffffffffffffffff16815260200190815260200160002081905550670de0b6b3a7640000600960003373ffffffffffffffffffffffffffffffffffffffff1673ffffffffffffffffffffffffffffffffffffffff16815260200190815260200160002081905550620009ed565b61104780620027e183390190565b8280546200060a9062000910565b90600052602060002090601f0160209004810192826200062e57600085556200067a565b82601f106200064957805160ff19168380011785556200067a565b828001600101855582156200067a579182015b82811115620006795782518255916020019190600101906200065c565b5b5090506200068991906200068d565b5090565b5b80821115620006a85760008160009055506001016200068e565b5090565b6000620006c3620006bd8462000808565b620007d4565b905082815260208101848484011115620006dc57600080fd5b620006e9848285620008da565b509392505050565b600082601f8301126200070357600080fd5b815162000715848260208601620006ac565b91505092915050565b6000815190506200072f81620009d3565b92915050565b6000602082840312156200074857600080fd5b600082015167ffffffffffffffff8111156200076357600080fd5b6200077184828501620006f1565b91505092915050565b6000602082840312156200078d57600080fd5b60006200079d848285016200071e565b91505092915050565b620007b1816200089c565b82525050565b6000602082019050620007ce6000830184620007a6565b92915050565b6000604051905081810181811067ffffffffffffffff82111715620007fe57620007fd620009a4565b5b8060405250919050565b600067ffffffffffffffff821115620008265762000825620009a4565b5b601f19601f8301169050602081019050919050565b60006200084882620008d0565b91506200085583620008d0565b9250817fffffffffffffffffffffffffffffffffffffffffffffffffffffffffffffffff048311821515161562000891576200089062000946565b5b828202905092915050565b6000620008a982620008b0565b9050919050565b600073ffffffffffffffffffffffffffffffffffffffff82169050919050565b6000819050919050565b60005b83811015620008fa578082015181840152602081019050620008dd565b838111156200090a576000848401525b50505050565b600060028204905060018216806200092957607f821691505b6020821081141562000940576200093f62000975565b5b50919050565b7f4e487b7100000000000000000000000000000000000000000000000000000000600052601160045260246000fd5b7f4e487b7100000000000000000000000000000000000000000000000000000000600052602260045260246000fd5b7f4e487b7100000000000000000000000000000000000000000000000000000000600052604160045260246000fd5b620009de81620008d0565b8114620009ea57600080fd5b50565b611de480620009fd6000396000f3fe608060405234801561001057600080fd5b50600436106101215760003560e01c80637a16af7f116100ad578063c02a7e4011610071578063c02a7e4014610387578063d21220a7146103b7578063d212b440146103d5578063d3817b4a14610405578063f4cb34d41461043557610121565b80637a16af7f146102a65780637f5e30d8146102d6578063980d69d314610307578063a288ca8614610337578063aca34c111461036757610121565b8063319bb38f116100f4578063319bb38f146101d5578063450177c614610205578063513b6b1814610235578063665a11ca146102555780637565a92b1461027657610121565b8063078b7fdc1461012657806325be124e146101565780632e1a7d4d146101745780632ef66444146101a5575b600080fd5b610140600480360381019061013b9190611702565b610465565b60405161014d9190611ab2565b60405180910390f35b61015e6104e4565b60405161016b91906119b7565b60405180910390f35b61018e60048036038101906101899190611702565b61050a565b60405161019c929190611acd565b60405180910390f35b6101bf60048036038101906101ba91906116d9565b6107b0565b6040516101cc9190611ab2565b60405180910390f35b6101ef60048036038101906101ea9190611702565b6107c8565b6040516101fc9190611ab2565b60405180910390f35b61021f600480360381019061021a9190611702565b610847565b60405161022c9190611ab2565b60405180910390f35b61023d610905565b60405161024c93929190611af6565b60405180910390f35b61025d6109d5565b60405161026d9493929190611b2d565b60405180910390f35b610290600480360381019061028b9190611702565b6109f3565b60405161029d9190611ab2565b60405180910390f35b6102c060048036038101906102bb919061172b565b610adc565b6040516102cd9190611ab2565b60405180910390f35b6102f060048036038101906102eb9190611702565b610efa565b6040516102fe929190611acd565b60405180910390f35b610321600480360381019061031c9190611702565b61102e565b60405161032e9190611ab2565b60405180910390f35b610351600480360381019061034c91906116d9565b611234565b60405161035e9190611ab2565b60405180910390f35b61036f61124c565b60405161037e93929190611af6565b60405180910390f35b6103a1600480360381019061039c91906116d9565b61126e565b6040516103ae9190611ab2565b60405180910390f35b6103bf611286565b6040516103cc91906119b7565b60405180910390f35b6103ef60048036038101906103ea9190611702565b6112aa565b6040516103fc9190611ab2565b60405180910390f35b61041f600480360381019061041a9190611702565b611393565b60405161042c9190611ab2565b60405180910390f35b61044f600480360381019061044a9190611702565b611451565b60405161045c9190611ab2565b60405180910390f35b600080600a60030154116104ae576040517f08c379a00000000000000000000000000000000000000000000000000000000081526004016104a5906119d2565b60405180910390fd5b6104dd600a600101546104cf84600a6000015461165790919063ffffffff16565b61166d90919063ffffffff16565b9050919050565b600160009054906101000a900473ffffffffffffffffffffffffffffffffffffffff1681565b6000806000600a6003015411610555576040517f08c379a000000000000000000000000000000000000000000000000000000000815260040161054c906119d2565b60405180910390fd5b6007836000811161059b576040517f08c379a000000000000000000000000000000000000000000000000000000000815260040161059290611a92565b60405180910390fd5b8160003373ffffffffffffffffffffffffffffffffffffffff1673ffffffffffffffffffffffffffffffffffffffff1681526020019081526020016000205481111561061c576040517f08c379a000000000000000000000000000000000000000000000000000000000815260040161061390611a52565b60405180910390fd5b61062585610efa565b809450819550505084600760003373ffffffffffffffffffffffffffffffffffffffff1673ffffffffffffffffffffffffffffffffffffffff168152602001908152602001600020600082825461067c9190611c64565b9250508190555084600a60020160008282546106989190611c64565b9250508190555083600a60000160008282546106b49190611c64565b9250508190555082600a60010160008282546106d09190611c64565b925050819055506106f4600a60010154600a6000015461165790919063ffffffff16565b600a6003018190555083600860003373ffffffffffffffffffffffffffffffffffffffff1673ffffffffffffffffffffffffffffffffffffffff168152602001908152602001600020600082825461074c9190611b83565b9250508190555082600960003373ffffffffffffffffffffffffffffffffffffffff1673ffffffffffffffffffffffffffffffffffffffff16815260200190815260200160002060008282546107a29190611b83565b925050819055505050915091565b60086020528060005260406000206000915090505481565b600080600a6003015411610811576040517f08c379a0000000000000000000000000000000000000000000000000000000008152600401610808906119d2565b60405180910390fd5b610840600a6000015461083284600a6001015461165790919063ffffffff16565b61166d90919063ffffffff16565b9050919050565b600080600a6003015411610890576040517f08c379a0000000000000000000000000000000000000000000000000000000008152600401610887906119d2565b60405180910390fd5b60006108aa83600a6000015461168390919063ffffffff16565b905060006108c682600a6003015461166d90919063ffffffff16565b90506108e081600a6001015461169990919063ffffffff16565b9250600a600101548314156108fe5782806108fa90611cf8565b9350505b5050919050565b6000806000600860003373ffffffffffffffffffffffffffffffffffffffff1673ffffffffffffffffffffffffffffffffffffffff168152602001908152602001600020549250600960003373ffffffffffffffffffffffffffffffffffffffff1673ffffffffffffffffffffffffffffffffffffffff168152602001908152602001600020549150600760003373ffffffffffffffffffffffffffffffffffffffff1673ffffffffffffffffffffffffffffffffffffffff168152602001908152602001600020549050909192565b600a8060000154908060010154908060020154908060030154905084565b600080600a6003015411610a3c576040517f08c379a0000000000000000000000000000000000000000000000000000000008152600401610a33906119d2565b60405180910390fd5b600a600001548210610a83576040517f08c379a0000000000000000000000000000000000000000000000000000000008152600401610a7a906119f2565b60405180910390fd5b6000610a9d83600a6000015461169990919063ffffffff16565b90506000610ab982600a6003015461166d90919063ffffffff16565b9050610ad3600a600101548261169990919063ffffffff16565b92505050919050565b600060088360008111610b24576040517f08c379a0000000000000000000000000000000000000000000000000000000008152600401610b1b90611a92565b60405180910390fd5b8160003373ffffffffffffffffffffffffffffffffffffffff1673ffffffffffffffffffffffffffffffffffffffff16815260200190815260200160002054811115610ba5576040517f08c379a0000000000000000000000000000000000000000000000000000000008152600401610b9c90611a52565b60405180910390fd5b60098460008111610beb576040517f08c379a0000000000000000000000000000000000000000000000000000000008152600401610be290611a92565b60405180910390fd5b8160003373ffffffffffffffffffffffffffffffffffffffff1673ffffffffffffffffffffffffffffffffffffffff16815260200190815260200160002054811115610c6c576040517f08c379a0000000000000000000000000000000000000000000000000000000008152600401610c6390611a52565b60405180910390fd5b6000600a600201541415610c835760649450610d31565b6000610cb4600a60000154610ca68a600a6002015461165790919063ffffffff16565b61166d90919063ffffffff16565b90506000610ce7600a60010154610cd98a600a6002015461165790919063ffffffff16565b61166d90919063ffffffff16565b9050808214610d2b576040517f08c379a0000000000000000000000000000000000000000000000000000000008152600401610d2290611a72565b60405180910390fd5b81965050505b60008511610d74576040517f08c379a0000000000000000000000000000000000000000000000000000000008152600401610d6b90611a12565b60405180910390fd5b86600860003373ffffffffffffffffffffffffffffffffffffffff1673ffffffffffffffffffffffffffffffffffffffff1681526020019081526020016000206000828254610dc39190611c64565b9250508190555085600960003373ffffffffffffffffffffffffffffffffffffffff1673ffffffffffffffffffffffffffffffffffffffff1681526020019081526020016000206000828254610e199190611c64565b9250508190555086600a6000016000828254610e359190611b83565b9250508190555085600a6001016000828254610e519190611b83565b92505081905550610e75600a60010154600a6000015461165790919063ffffffff16565b600a6003018190555084600a6002016000828254610e939190611b83565b9250508190555084600760003373ffffffffffffffffffffffffffffffffffffffff1673ffffffffffffffffffffffffffffffffffffffff1681526020019081526020016000206000828254610ee99190611b83565b925050819055505050505092915050565b6000806000600a6003015411610f45576040517f08c379a0000000000000000000000000000000000000000000000000000000008152600401610f3c906119d2565b60405180910390fd5b600760003373ffffffffffffffffffffffffffffffffffffffff1673ffffffffffffffffffffffffffffffffffffffff16815260200190815260200160002054831115610fc7576040517f08c379a0000000000000000000000000000000000000000000000000000000008152600401610fbe90611a32565b60405180910390fd5b610ff6600a60020154610fe8600a600001548661165790919063ffffffff16565b61166d90919063ffffffff16565b9150611027600a60020154611019600a600101548661165790919063ffffffff16565b61166d90919063ffffffff16565b9050915091565b600080600a6003015411611077576040517f08c379a000000000000000000000000000000000000000000000000000000000815260040161106e906119d2565b60405180910390fd5b600982600081116110bd576040517f08c379a00000000000000000000000000000000000000000000000000000000081526004016110b490611a92565b60405180910390fd5b8160003373ffffffffffffffffffffffffffffffffffffffff1673ffffffffffffffffffffffffffffffffffffffff1681526020019081526020016000205481111561113e576040517f08c379a000000000000000000000000000000000000000000000000000000000815260040161113590611a52565b60405180910390fd5b61114784611393565b925083600960003373ffffffffffffffffffffffffffffffffffffffff1673ffffffffffffffffffffffffffffffffffffffff16815260200190815260200160002060008282546111989190611c64565b9250508190555083600a60010160008282546111b49190611b83565b9250508190555082600a60000160008282546111d09190611c64565b9250508190555082600860003373ffffffffffffffffffffffffffffffffffffffff1673ffffffffffffffffffffffffffffffffffffffff16815260200190815260200160002060008282546112269190611b83565b925050819055505050919050565b60076020528060005260406000206000915090505481565b6000806000600a60000154600a60010154600a60020154925092509250909192565b60096020528060005260406000206000915090505481565b60008054906101000a900473ffffffffffffffffffffffffffffffffffffffff1681565b600080600a60030154116112f3576040517f08c379a00000000000000000000000000000000000000000000000000000000081526004016112ea906119d2565b60405180910390fd5b600a60010154821061133a576040517f08c379a0000000000000000000000000000000000000000000000000000000008152600401611331906119f2565b60405180910390fd5b600061135483600a6001015461169990919063ffffffff16565b9050600061137082600a6003015461166d90919063ffffffff16565b905061138a600a600001548261169990919063ffffffff16565b92505050919050565b600080600a60030154116113dc576040517f08c379a00000000000000000000000000000000000000000000000000000000081526004016113d3906119d2565b60405180910390fd5b60006113f683600a6001015461168390919063ffffffff16565b9050600061141282600a6003015461166d90919063ffffffff16565b905061142c81600a6000015461169990919063ffffffff16565b9250600a6000015483141561144a57828061144690611cf8565b9350505b5050919050565b600080600a600301541161149a576040517f08c379a0000000000000000000000000000000000000000000000000000000008152600401611491906119d2565b60405180910390fd5b600882600081116114e0576040517f08c379a00000000000000000000000000000000000000000000000000000000081526004016114d790611a92565b60405180910390fd5b8160003373ffffffffffffffffffffffffffffffffffffffff1673ffffffffffffffffffffffffffffffffffffffff16815260200190815260200160002054811115611561576040517f08c379a000000000000000000000000000000000000000000000000000000000815260040161155890611a52565b60405180910390fd5b61156a84610847565b925083600860003373ffffffffffffffffffffffffffffffffffffffff1673ffffffffffffffffffffffffffffffffffffffff16815260200190815260200160002060008282546115bb9190611c64565b9250508190555083600a60000160008282546115d79190611b83565b9250508190555082600a60010160008282546115f39190611c64565b9250508190555082600960003373ffffffffffffffffffffffffffffffffffffffff1673ffffffffffffffffffffffffffffffffffffffff16815260200190815260200160002060008282546116499190611b83565b925050819055505050919050565b600081836116659190611c0a565b905092915050565b6000818361167b9190611bd9565b905092915050565b600081836116919190611b83565b905092915050565b600081836116a79190611c64565b905092915050565b6000813590506116be81611d80565b92915050565b6000813590506116d381611d97565b92915050565b6000602082840312156116eb57600080fd5b60006116f9848285016116af565b91505092915050565b60006020828403121561171457600080fd5b6000611722848285016116c4565b91505092915050565b6000806040838503121561173e57600080fd5b600061174c858286016116c4565b925050602061175d858286016116c4565b9150509250929050565b61177081611cd4565b82525050565b6000611783600e83611b72565b91507f5a65726f204c69717569646974790000000000000000000000000000000000006000830152602082019050919050565b60006117c3601983611b72565b91507f496e73756666696369656e7420706f6f6c2062616c616e6365000000000000006000830152602082019050919050565b6000611803603183611b72565b91507f41737365742076616c7565206c657373207468616e207468726573686f6c642060008301527f666f7220636f6e747269627574696f6e210000000000000000000000000000006020830152604082019050919050565b6000611869603f83611b72565b91507f456e7465726564204c5020546f6b656e2073686f756c64206265206c6573732060008301527f7468616e20746f74616c204c5020546f6b656e206f662070726f7669646572006020830152604082019050919050565b60006118cf601383611b72565b91507f496e73756666696369656e7420616d6f756e74000000000000000000000000006000830152602082019050919050565b600061190f602a83611b72565b91507f4571756976616c656e742076616c7565206f6620746f6b656e73206e6f74207060008301527f726f76696465642e2e2e000000000000000000000000000000000000000000006020830152604082019050919050565b6000611975601683611b72565b91507f416d6f756e742063616e6e6f74206265207a65726f21000000000000000000006000830152602082019050919050565b6119b181611cca565b82525050565b60006020820190506119cc6000830184611767565b92915050565b600060208201905081810360008301526119eb81611776565b9050919050565b60006020820190508181036000830152611a0b816117b6565b9050919050565b60006020820190508181036000830152611a2b816117f6565b9050919050565b60006020820190508181036000830152611a4b8161185c565b9050919050565b60006020820190508181036000830152611a6b816118c2565b9050919050565b60006020820190508181036000830152611a8b81611902565b9050919050565b60006020820190508181036000830152611aab81611968565b9050919050565b6000602082019050611ac760008301846119a8565b92915050565b6000604082019050611ae260008301856119a8565b611aef60208301846119a8565b9392505050565b6000606082019050611b0b60008301866119a8565b611b1860208301856119a8565b611b2560408301846119a8565b949350505050565b6000608082019050611b4260008301876119a8565b611b4f60208301866119a8565b611b5c60408301856119a8565b611b6960608301846119a8565b95945050505050565b600082825260208201905092915050565b6000611b8e82611cca565b9150611b9983611cca565b9250827fffffffffffffffffffffffffffffffffffffffffffffffffffffffffffffffff03821115611bce57611bcd611d22565b5b828201905092915050565b6000611be482611cca565b9150611bef83611cca565b925082611bff57611bfe611d51565b5b828204905092915050565b6000611c1582611cca565b9150611c2083611cca565b9250817fffffffffffffffffffffffffffffffffffffffffffffffffffffffffffffffff0483118215151615611c5957611c58611d22565b5b828202905092915050565b6000611c6f82611cca565b9150611c7a83611cca565b925082821015611c8d57611c8c611d22565b5b828203905092915050565b6000611ca382611caa565b9050919050565b600073ffffffffffffffffffffffffffffffffffffffff82169050919050565b6000819050919050565b6000611cdf82611ce6565b9050919050565b6000611cf182611caa565b9050919050565b6000611d0382611cca565b91506000821415611d1757611d16611d22565b5b600182039050919050565b7f4e487b7100000000000000000000000000000000000000000000000000000000600052601160045260246000fd5b7f4e487b7100000000000000000000000000000000000000000000000000000000600052601260045260246000fd5b611d8981611c98565b8114611d9457600080fd5b50565b611da081611cca565b8114611dab57600080fd5b5056fea2646970667358221220ed8f5c40e7d8d49e008e0680d503ba27c0cca38bf69fb5293d202c127b924a9e64736f6c6343000800003360806040526706f05b59d3b2000060055534801561001c57600080fd5b5061101b8061002c6000396000f3fe608060405234801561001057600080fd5b50600436106100b45760003560e01c806370a082311161007157806370a082311461019157806395d89b41146101c1578063a9059cbb146101df578063b09f12661461020f578063d28d88521461022d578063dd62ed3e1461024b576100b4565b806306fdde03146100b9578063095ea7b3146100d757806318160ddd1461010757806323b872dd14610125578063313ce5671461015557806332424aa314610173575b600080fd5b6100c161027b565b6040516100ce9190610d90565b60405180910390f35b6100f160048036038101906100ec9190610cd3565b61030d565b6040516100fe9190610d75565b60405180910390f35b61010f6103ff565b60405161011c9190610db2565b60405180910390f35b61013f600480360381019061013a9190610c84565b610409565b60405161014c9190610d75565b60405180910390f35b61015d610774565b60405161016a9190610dcd565b60405180910390f35b61017b61078b565b6040516101889190610dcd565b60405180910390f35b6101ab60048036038101906101a69190610c1f565b61079e565b6040516101b89190610db2565b60405180910390f35b6101c96107e7565b6040516101d69190610d90565b60405180910390f35b6101f960048036038101906101f49190610cd3565b610879565b6040516102069190610d75565b60405180910390f35b610217610a52565b6040516102249190610d90565b60405180910390f35b610235610ae0565b6040516102429190610d90565b60405180910390f35b61026560048036038101906102609190610c48565b610b6e565b6040516102729190610db2565b60405180910390f35b60606000805461028a90610f16565b80601f01602080910402602001604051908101604052809291908181526020018280546102b690610f16565b80156103035780601f106102d857610100808354040283529160200191610303565b820191906000526020600020905b8154815290600101906020018083116102e657829003601f168201915b5050505050905090565b600081600460003373ffffffffffffffffffffffffffffffffffffffff1673ffffffffffffffffffffffffffffffffffffffff16815260200190815260200160002060008573ffffffffffffffffffffffffffffffffffffffff1673ffffffffffffffffffffffffffffffffffffffff168152602001908152602001600020819055508273ffffffffffffffffffffffffffffffffffffffff163373ffffffffffffffffffffffffffffffffffffffff167f8c5be1e5ebec7d5bd14f71427d1e84f3dd0314c0f7b2291e5b200ac8c7c3b925846040516103ed9190610db2565b60405180910390a36001905092915050565b6000600554905090565b6000600360008573ffffffffffffffffffffffffffffffffffffffff1673ffffffffffffffffffffffffffffffffffffffff1681526020019081526020016000205482111561045757600080fd5b600460008573ffffffffffffffffffffffffffffffffffffffff1673ffffffffffffffffffffffffffffffffffffffff16815260200190815260200160002060003373ffffffffffffffffffffffffffffffffffffffff1673ffffffffffffffffffffffffffffffffffffffff168152602001908152602001600020548211156104e057600080fd5b81600360008673ffffffffffffffffffffffffffffffffffffffff1673ffffffffffffffffffffffffffffffffffffffff1681526020019081526020016000205461052b9190610e5a565b600360008673ffffffffffffffffffffffffffffffffffffffff1673ffffffffffffffffffffffffffffffffffffffff1681526020019081526020016000208190555081600460008673ffffffffffffffffffffffffffffffffffffffff1673ffffffffffffffffffffffffffffffffffffffff16815260200190815260200160002060003373ffffffffffffffffffffffffffffffffffffffff1673ffffffffffffffffffffffffffffffffffffffff168152602001908152602001600020546105f69190610e04565b600460008673ffffffffffffffffffffffffffffffffffffffff1673ffffffffffffffffffffffffffffffffffffffff16815260200190815260200160002060003373ffffffffffffffffffffffffffffffffffffffff1673ffffffffffffffffffffffffffffffffffffffff1681526020019081526020016000208190555081600360008573ffffffffffffffffffffffffffffffffffffffff1673ffffffffffffffffffffffffffffffffffffffff168152602001908152602001600020546106c19190610e04565b600360008573ffffffffffffffffffffffffffffffffffffffff1673ffffffffffffffffffffffffffffffffffffffff168152602001908152602001600020819055508273ffffffffffffffffffffffffffffffffffffffff168473ffffffffffffffffffffffffffffffffffffffff167fddf252ad1be2c89b69c2b068fc378daa952ba7f163c4a11628f55a4df523b3ef846040516107619190610db2565b60405180910390a3600190509392505050565b6000600260009054906101000a900460ff16905090565b600260009054906101000a900460ff1681565b6000600360008373ffffffffffffffffffffffffffffffffffffffff1673ffffffffffffffffffffffffffffffffffffffff168152602001908152602001600020549050919050565b6060600180546107f690610f16565b80601f016020809104026020016040519081016040528092919081815260200182805461082290610f16565b801561086f5780601f106108445761010080835404028352916020019161086f565b820191906000526020600020905b81548152906001019060200180831161085257829003601f168201915b5050505050905090565b6000600360003373ffffffffffffffffffffffffffffffffffffffff1673ffffffffffffffffffffffffffffffffffffffff168152602001908152602001600020548211156108c757600080fd5b81600360003373ffffffffffffffffffffffffffffffffffffffff1673ffffffffffffffffffffffffffffffffffffffff168152602001908152602001600020546109129190610e5a565b600360003373ffffffffffffffffffffffffffffffffffffffff1673ffffffffffffffffffffffffffffffffffffffff1681526020019081526020016000208190555081600360008573ffffffffffffffffffffffffffffffffffffffff1673ffffffffffffffffffffffffffffffffffffffff168152602001908152602001600020546109a09190610e04565b600360008573ffffffffffffffffffffffffffffffffffffffff1673ffffffffffffffffffffffffffffffffffffffff168152602001908152602001600020819055508273ffffffffffffffffffffffffffffffffffffffff163373ffffffffffffffffffffffffffffffffffffffff167fddf252ad1be2c89b69c2b068fc378daa952ba7f163c4a11628f55a4df523b3ef84604051610a409190610db2565b60405180910390a36001905092915050565b60018054610a5f90610f16565b80601f0160208091040260200160405190810160405280929190818152602001828054610a8b90610f16565b8015610ad85780601f10610aad57610100808354040283529160200191610ad8565b820191906000526020600020905b815481529060010190602001808311610abb57829003601f168201915b505050505081565b60008054610aed90610f16565b80601f0160208091040260200160405190810160405280929190818152602001828054610b1990610f16565b8015610b665780601f10610b3b57610100808354040283529160200191610b66565b820191906000526020600020905b815481529060010190602001808311610b4957829003601f168201915b505050505081565b6000600460008473ffffffffffffffffffffffffffffffffffffffff1673ffffffffffffffffffffffffffffffffffffffff16815260200190815260200160002060008373ffffffffffffffffffffffffffffffffffffffff1673ffffffffffffffffffffffffffffffffffffffff16815260200190815260200160002054905092915050565b600081359050610c0481610fb7565b92915050565b600081359050610c1981610fce565b92915050565b600060208284031215610c3157600080fd5b6000610c3f84828501610bf5565b91505092915050565b60008060408385031215610c5b57600080fd5b6000610c6985828601610bf5565b9250506020610c7a85828601610bf5565b9150509250929050565b600080600060608486031215610c9957600080fd5b6000610ca786828701610bf5565b9350506020610cb886828701610bf5565b9250506040610cc986828701610c0a565b9150509250925092565b60008060408385031215610ce657600080fd5b6000610cf485828601610bf5565b9250506020610d0585828601610c0a565b9150509250929050565b610d1881610ea0565b82525050565b6000610d2982610de8565b610d338185610df3565b9350610d43818560208601610ee3565b610d4c81610fa6565b840191505092915050565b610d6081610ecc565b82525050565b610d6f81610ed6565b82525050565b6000602082019050610d8a6000830184610d0f565b92915050565b60006020820190508181036000830152610daa8184610d1e565b905092915050565b6000602082019050610dc76000830184610d57565b92915050565b6000602082019050610de26000830184610d66565b92915050565b600081519050919050565b600082825260208201905092915050565b6000610e0f82610ecc565b9150610e1a83610ecc565b9250827fffffffffffffffffffffffffffffffffffffffffffffffffffffffffffffffff03821115610e4f57610e4e610f48565b5b828201905092915050565b6000610e6582610ecc565b9150610e7083610ecc565b925082821015610e8357610e82610f48565b5b828203905092915050565b6000610e9982610eac565b9050919050565b60008115159050919050565b600073ffffffffffffffffffffffffffffffffffffffff82169050919050565b6000819050919050565b600060ff82169050919050565b60005b83811015610f01578082015181840152602081019050610ee6565b83811115610f10576000848401525b50505050565b60006002820490506001821680610f2e57607f821691505b60208210811415610f4257610f41610f77565b5b50919050565b7f4e487b7100000000000000000000000000000000000000000000000000000000600052601160045260246000fd5b7f4e487b7100000000000000000000000000000000000000000000000000000000600052602260045260246000fd5b6000601f19601f8301169050919050565b610fc081610e8e565b8114610fcb57600080fd5b50565b610fd781610ecc565b8114610fe257600080fd5b5056fea264697066735822122084b2972910ce78165c790b0510d8dbf6708b2d6e74c3e8abb6ef53d9abb16b3164736f6c63430008000033",
  "immutableReferences": {},
  "source": "//SPDX-License-Identifier: MIT\r\n\r\npragma solidity ^0.8.0;\r\nimport \"@openzeppelin/contracts/utils/math/SafeMath.sol\";\r\nimport \"./IERC20.sol\";\r\n\r\ncontract DragonSwap{\r\n    using SafeMath for uint256;\r\n\r\n    IERC20 public token1;\r\n    IERC20 public token2;\r\n    uint256 ETH_Token;     // ERC-20 Token\r\n    uint256 DRG_Token;     // ERC-20 Token\r\n    string name1;\r\n    string name2;\r\n    uint8 decimal;\r\n\r\n    struct LiquidityPool{\r\n        uint256 total_token_1;\r\n        uint256 total_token_2;\r\n        uint256 total_LPTokens;\r\n        uint256 K;  // constant from xyk model\r\n    }\r\n\r\n    mapping (address => uint) public LP_Tokens;  // store the LP token for each provider\r\n    mapping (address => uint) public token_1_balance;  // store token 1 balance of each user (LP provider / trader)\r\n    mapping (address => uint) public token_2_balance;  // store token 2 balance of each user (LP provider / trader)\r\n    LiquidityPool public liquidityPool;     // represent the pool\r\n\r\n    constructor(){\r\n        token1 = new ERC20Basic();\r\n        token2 = new ERC20Basic();\r\n        liquidityPool.total_token_1 = token1.balanceOf(address(this)); // 10 Ether\r\n        liquidityPool.total_token_2 = token2.balanceOf(address(this)); // 10 Ether\r\n        name1 = token1.name();\r\n        name2 = token2.name();\r\n        liquidityPool.K = token1.balanceOf(address(this)) * token2.balanceOf(address(this));    // 10 ** 36 - constant \r\n        token_1_balance[msg.sender] = 1000000000000000000;\r\n        token_2_balance[msg.sender] = 1000000000000000000;\r\n    }\r\n\r\n    // Ensures that the _qty is non-zero and the user has enough balance\r\n    modifier validAmountCheck(mapping(address => uint256) storage _balance, uint256 _qty) {\r\n        require(_qty > 0, \"Amount cannot be zero!\"); //entered amount cannot be 0\r\n        require(_qty <= _balance[msg.sender], \"Insufficient amount\"); //entered amount must less than or equal to sender balance\r\n        _;\r\n    }\r\n\r\n    // Ensure the pool have token 1 and token 2 balances\r\n    modifier activePool() {\r\n        require(liquidityPool.K > 0, \"Zero Liquidity\");\r\n        _;\r\n    }\r\n\r\n    // Returns the total amount of tokens locked in the pool and the total shares issued corresponding to it\r\n    function getPoolDetails() external view returns(uint256, uint256, uint256) {\r\n        return (liquidityPool.total_token_1, liquidityPool.total_token_2, liquidityPool.total_LPTokens);\r\n    }\r\n\r\n    // Returns the balance of the user\r\n    function checkMyBalances() external view returns(uint256 amountToken1, uint256 amountToken2, uint256 LP_Token) {\r\n        amountToken1 = token_1_balance[msg.sender];\r\n        amountToken2 = token_2_balance[msg.sender];\r\n        LP_Token = LP_Tokens[msg.sender];\r\n    }\r\n\r\n    // Returns amount of Token1 required when providing liquidity with _amountToken2 quantity of Token2\r\n    function getEquivalentToken1Estimate(uint256 _amountToken2) public view activePool returns(uint256 reqToken1) {\r\n        reqToken1 = liquidityPool.total_token_1.mul(_amountToken2).div(liquidityPool.total_token_2);\r\n    }\r\n\r\n    // Returns amount of Token2 required when providing liquidity with _amountToken1 quantity of Token1\r\n    function getEquivalentToken2Estimate(uint256 _amountToken1) public view activePool returns(uint256 reqToken2) {\r\n        reqToken2 = liquidityPool.total_token_2.mul(_amountToken1).div(liquidityPool.total_token_1);\r\n    }\r\n\r\n    /* Provide more token 1 and token 2 into the pool - Expands the pool\r\n    ** 1. Calculate LP token for LP provider such that token 1 and token 2 give the equivalent value \r\n    ** 2. Reduce amount token1 and token2 from user balances\r\n    ** 3. Increase the total amount token 1 and token 2\r\n    ** 4. Calculate new constant\r\n    ** 5. Increase total amount of LP tokens in pool\r\n    ** 6. Assign the LP token calculated into user's LP token balances\r\n    */ \r\n    function provideLiquidity(uint256 _amountToken1, uint256 _amountToken2) validAmountCheck(token_1_balance, _amountToken1) validAmountCheck(token_2_balance, _amountToken2) public returns(uint256 LP_token){\r\n\r\n        if(liquidityPool.total_LPTokens == 0){\r\n            LP_token = 100;\r\n        }else{\r\n            uint256 LP_token1 = liquidityPool.total_LPTokens.mul(_amountToken1).div(liquidityPool.total_token_1);\r\n            uint256 LP_token2 = liquidityPool.total_LPTokens.mul(_amountToken2).div(liquidityPool.total_token_2);\r\n            require(LP_token1 == LP_token2, \"Equivalent value of tokens not provided...\");\r\n            LP_token = LP_token1;\r\n        }\r\n\r\n        require(LP_token > 0, \"Asset value less than threshold for contribution!\");\r\n        token_1_balance[msg.sender] -= _amountToken1;\r\n        token_2_balance[msg.sender] -= _amountToken2;\r\n\r\n        liquidityPool.total_token_1 += _amountToken1;\r\n        liquidityPool.total_token_2 += _amountToken2;\r\n\r\n        liquidityPool.K = liquidityPool.total_token_1.mul(liquidityPool.total_token_2);\r\n\r\n        liquidityPool.total_LPTokens += LP_token;\r\n        LP_Tokens[msg.sender] += LP_token;\r\n    }\r\n\r\n    // Returns the estimate of Token1 & Token2 that will be released on burning given _LPToken\r\n    function getWithdrawTokenEstimate(uint256 _LPToken) public view activePool returns(uint256 amountToken1, uint256 amountToken2) {\r\n        require(_LPToken <=LP_Tokens[msg.sender] , \"Entered LP Token should be less than total LP Token of provider\");\r\n        amountToken1 = _LPToken.mul(liquidityPool.total_token_1).div(liquidityPool.total_LPTokens); //used entered token, provider may not withdraw all the coin\r\n        amountToken2 = _LPToken.mul(liquidityPool.total_token_2).div(liquidityPool.total_LPTokens);\r\n    }\r\n\r\n    // Removes liquidity from the pool and releases corresponding Token1 & Token2 to the withdrawer\r\n    // _LPToken :entered by provider\r\n    // LP_Tokens:LP Token owned by provider\r\n    function withdraw(uint256 _LPToken) external activePool validAmountCheck(LP_Tokens, _LPToken) returns(uint256 amountToken1, uint256 amountToken2) {\r\n        (amountToken1, amountToken2) = getWithdrawTokenEstimate(_LPToken);\r\n        \r\n        LP_Tokens[msg.sender] -= _LPToken;\r\n        liquidityPool.total_LPTokens -= _LPToken;\r\n\r\n        liquidityPool.total_token_1 -= amountToken1;\r\n        liquidityPool.total_token_2 -= amountToken2;\r\n        liquidityPool.K= liquidityPool.total_token_1.mul(liquidityPool.total_token_2);\r\n\r\n        token_1_balance[msg.sender] += amountToken1;\r\n        token_2_balance[msg.sender] += amountToken2;\r\n    }\r\n\r\n    \r\n    // Returns the amount of Token2 that the user will get when swapping a given amount of Token1 for Token2\r\n    function getSwapToken1Estimate(uint256 _amountToken1) public view activePool returns(uint256 amountToken2) {\r\n        uint256 token1After = liquidityPool.total_token_1.add(_amountToken1);\r\n        uint256 token2After = liquidityPool.K.div(token1After);\r\n        amountToken2 = liquidityPool.total_token_2.sub(token2After);\r\n\r\n        // To ensure that Token2's pool is not completely depleted leading to inf:0 ratio\r\n        if(amountToken2 == liquidityPool.total_token_2) amountToken2--;\r\n    }\r\n    \r\n    // Returns the amount of Token1 that the user should swap to get _amountToken2 in return\r\n    function getSwapToken1EstimateGivenToken2(uint256 _amountToken2) public view activePool returns(uint256 amountToken1) {\r\n        require(_amountToken2 < liquidityPool.total_token_2, \"Insufficient pool balance\");\r\n        uint256 token2After = liquidityPool.total_token_2.sub(_amountToken2);\r\n        uint256 token1After = liquidityPool.K.div(token2After);\r\n        amountToken1 = token1After.sub(liquidityPool.total_token_1);\r\n    }\r\n\r\n    // Swaps given amount of Token1 to Token2 using algorithmic price determination\r\n    function swapToken1(uint256 _amountToken1) external activePool validAmountCheck(token_1_balance, _amountToken1) returns(uint256 amountToken2) {\r\n        amountToken2 = getSwapToken1Estimate(_amountToken1);\r\n\r\n        token_1_balance[msg.sender] -= _amountToken1;\r\n        liquidityPool.total_token_1 += _amountToken1;\r\n        liquidityPool.total_token_2 -= amountToken2;\r\n        token_2_balance[msg.sender] += amountToken2;\r\n    }\r\n\r\n    // Returns the amount of Token2 that the user will get when swapping a given amount of Token1 for Token2\r\n    function getSwapToken2Estimate(uint256 _amountToken2) public view activePool returns(uint256 amountToken1) {\r\n        uint256 token2After = liquidityPool.total_token_2.add(_amountToken2);\r\n        uint256 token1After = liquidityPool.K.div(token2After);\r\n        amountToken1 = liquidityPool.total_token_1.sub(token1After);\r\n\r\n        // To ensure that Token1's pool is not completely depleted leading to inf:0 ratio\r\n        if(amountToken1 == liquidityPool.total_token_1) amountToken1--;\r\n    }\r\n    \r\n    // Returns the amount of Token2 that the user should swap to get _amountToken1 in return\r\n    function getSwapToken2EstimateGivenToken1(uint256 _amountToken1) public view activePool returns(uint256 amountToken2) {\r\n        require(_amountToken1 < liquidityPool.total_token_1, \"Insufficient pool balance\");\r\n        uint256 token1After = liquidityPool.total_token_1.sub(_amountToken1);\r\n        uint256 token2After = liquidityPool.K.div(token1After);\r\n        amountToken2 = token2After.sub(liquidityPool.total_token_2);\r\n    }\r\n\r\n    // Swaps given amount of Token2 to Token1 using algorithmic price determination\r\n    function swapToken2(uint256 _amountToken2) external activePool validAmountCheck(token_2_balance, _amountToken2) returns(uint256 amountToken1) {\r\n        amountToken1 = getSwapToken2Estimate(_amountToken2);\r\n\r\n        token_2_balance[msg.sender] -= _amountToken2;\r\n        liquidityPool.total_token_2 += _amountToken2;\r\n        liquidityPool.total_token_1 -= amountToken1;\r\n        token_1_balance[msg.sender] += amountToken1;\r\n    }\r\n}\r\n",
  "sourcePath": "C:\\Users\\zixua\\Documents\\rabbitswap\\contracts\\DragonSwap.sol",
  "compiler": {
    "name": "solc",
    "version": "0.8.0+commit.c7dfd78e.Emscripten.clang"
  },
  "schemaVersion": "3.4.4",
  "updatedAt": "2022-04-10T15:24:41.499Z",
  "networkType": "ethereum",
  "devdoc": {
    "kind": "dev",
    "methods": {},
    "version": 1
  },
  "userdoc": {
    "kind": "user",
    "methods": {},
    "version": 1
  }
}