{
  "contractName": "DragonSwap",
  "abi": [
    {
      "inputs": [],
      "stateMutability": "nonpayable",
      "type": "constructor"
    },
    {
      "inputs": [
        {
          "internalType": "address",
          "name": "",
          "type": "address"
        }
      ],
      "name": "LP_Tokens",
      "outputs": [
        {
          "internalType": "uint256",
          "name": "",
          "type": "uint256"
        }
      ],
      "stateMutability": "view",
      "type": "function",
      "constant": true
    },
    {
      "inputs": [],
      "name": "liquidityPool",
      "outputs": [
        {
          "internalType": "uint256",
          "name": "total_token_1",
          "type": "uint256"
        },
        {
          "internalType": "uint256",
          "name": "total_token_2",
          "type": "uint256"
        },
        {
          "internalType": "uint256",
          "name": "total_LPTokens",
          "type": "uint256"
        },
        {
          "internalType": "uint256",
          "name": "K",
          "type": "uint256"
        }
      ],
      "stateMutability": "view",
      "type": "function",
      "constant": true
    },
    {
      "inputs": [],
      "name": "token1",
      "outputs": [
        {
          "internalType": "contract IERC20",
          "name": "",
          "type": "address"
        }
      ],
      "stateMutability": "view",
      "type": "function",
      "constant": true
    },
    {
      "inputs": [],
      "name": "token2",
      "outputs": [
        {
          "internalType": "contract IERC20",
          "name": "",
          "type": "address"
        }
      ],
      "stateMutability": "view",
      "type": "function",
      "constant": true
    },
    {
      "inputs": [
        {
          "internalType": "address",
          "name": "",
          "type": "address"
        }
      ],
      "name": "token_1_balance",
      "outputs": [
        {
          "internalType": "uint256",
          "name": "",
          "type": "uint256"
        }
      ],
      "stateMutability": "view",
      "type": "function",
      "constant": true
    },
    {
      "inputs": [
        {
          "internalType": "address",
          "name": "",
          "type": "address"
        }
      ],
      "name": "token_2_balance",
      "outputs": [
        {
          "internalType": "uint256",
          "name": "",
          "type": "uint256"
        }
      ],
      "stateMutability": "view",
      "type": "function",
      "constant": true
    },
    {
      "inputs": [],
      "name": "getProviderLPToken",
      "outputs": [
        {
          "internalType": "uint256",
          "name": "",
          "type": "uint256"
        }
      ],
      "stateMutability": "view",
      "type": "function",
      "constant": true
    },
    {
      "inputs": [],
      "name": "getPoolDetails",
      "outputs": [
        {
          "internalType": "uint256",
          "name": "",
          "type": "uint256"
        },
        {
          "internalType": "uint256",
          "name": "",
          "type": "uint256"
        },
        {
          "internalType": "uint256",
          "name": "",
          "type": "uint256"
        }
      ],
      "stateMutability": "view",
      "type": "function",
      "constant": true
    },
    {
      "inputs": [
        {
          "internalType": "uint256",
          "name": "_amountToken1",
          "type": "uint256"
        },
        {
          "internalType": "uint256",
          "name": "_amountToken2",
          "type": "uint256"
        }
      ],
      "name": "LPToken",
      "outputs": [
        {
          "internalType": "uint256",
          "name": "amountLPToken",
          "type": "uint256"
        }
      ],
      "stateMutability": "pure",
      "type": "function",
      "constant": true
    },
    {
      "inputs": [],
      "name": "checkMyBalances",
      "outputs": [
        {
          "internalType": "uint256",
          "name": "amountToken1",
          "type": "uint256"
        },
        {
          "internalType": "uint256",
          "name": "amountToken2",
          "type": "uint256"
        },
        {
          "internalType": "uint256",
          "name": "LP_Token",
          "type": "uint256"
        }
      ],
      "stateMutability": "view",
      "type": "function",
      "constant": true
    },
    {
      "inputs": [
        {
          "internalType": "uint256",
          "name": "_amountToken1",
          "type": "uint256"
        },
        {
          "internalType": "uint256",
          "name": "_amountToken2",
          "type": "uint256"
        }
      ],
      "name": "provideLiquidity",
      "outputs": [
        {
          "internalType": "uint256",
          "name": "LP_token",
          "type": "uint256"
        }
      ],
      "stateMutability": "nonpayable",
      "type": "function"
    },
    {
      "inputs": [
        {
          "internalType": "uint256",
          "name": "_LPToken",
          "type": "uint256"
        }
      ],
      "name": "getWithdrawTokenEstimate",
      "outputs": [
        {
          "internalType": "uint256",
          "name": "amountToken1",
          "type": "uint256"
        },
        {
          "internalType": "uint256",
          "name": "amountToken2",
          "type": "uint256"
        }
      ],
      "stateMutability": "view",
      "type": "function",
      "constant": true
    },
    {
      "inputs": [
        {
          "internalType": "uint256",
          "name": "_LPToken",
          "type": "uint256"
        }
      ],
      "name": "withdraw",
      "outputs": [
        {
          "internalType": "uint256",
          "name": "amountToken1",
          "type": "uint256"
        },
        {
          "internalType": "uint256",
          "name": "amountToken2",
          "type": "uint256"
        }
      ],
      "stateMutability": "nonpayable",
      "type": "function"
    },
    {
      "inputs": [
        {
          "internalType": "uint256",
          "name": "_amountToken1",
          "type": "uint256"
        }
      ],
      "name": "getSwapToken1Estimate",
      "outputs": [
        {
          "internalType": "uint256",
          "name": "amountToken2",
          "type": "uint256"
        }
      ],
      "stateMutability": "view",
      "type": "function",
      "constant": true
    },
    {
      "inputs": [
        {
          "internalType": "uint256",
          "name": "_amountToken1",
          "type": "uint256"
        }
      ],
      "name": "swapToken1",
      "outputs": [
        {
          "internalType": "uint256",
          "name": "amountToken2",
          "type": "uint256"
        }
      ],
      "stateMutability": "nonpayable",
      "type": "function"
    },
    {
      "inputs": [
        {
          "internalType": "uint256",
          "name": "_amountToken2",
          "type": "uint256"
        }
      ],
      "name": "getSwapToken2Estimate",
      "outputs": [
        {
          "internalType": "uint256",
          "name": "amountToken1",
          "type": "uint256"
        }
      ],
      "stateMutability": "view",
      "type": "function",
      "constant": true
    },
    {
      "inputs": [
        {
          "internalType": "uint256",
          "name": "_amountToken2",
          "type": "uint256"
        }
      ],
      "name": "swapToken2",
      "outputs": [
        {
          "internalType": "uint256",
          "name": "amountToken1",
          "type": "uint256"
        }
      ],
      "stateMutability": "nonpayable",
      "type": "function"
    }
  ],
  "bytecode": "0x60806040523480156200001157600080fd5b5060405162000020906200036c565b604051809103906000f0801580156200003d573d6000803e3d6000fd5b506000806101000a81548173ffffffffffffffffffffffffffffffffffffffff021916908373ffffffffffffffffffffffffffffffffffffffff1602179055506040516200008b906200036c565b604051809103906000f080158015620000a8573d6000803e3d6000fd5b50600160006101000a81548173ffffffffffffffffffffffffffffffffffffffff021916908373ffffffffffffffffffffffffffffffffffffffff1602179055506064600a6000018190555060fa600a60010181905550600160009054906101000a900473ffffffffffffffffffffffffffffffffffffffff1673ffffffffffffffffffffffffffffffffffffffff166370a08231306040518263ffffffff1660e01b81526004016200015c9190620003ce565b60206040518083038186803b1580156200017557600080fd5b505afa1580156200018a573d6000803e3d6000fd5b505050506040513d601f19601f82011682018060405250810190620001b0919062000391565b60008054906101000a900473ffffffffffffffffffffffffffffffffffffffff1673ffffffffffffffffffffffffffffffffffffffff166370a08231306040518263ffffffff1660e01b81526004016200020b9190620003ce565b60206040518083038186803b1580156200022457600080fd5b505afa15801562000239573d6000803e3d6000fd5b505050506040513d601f19601f820116820180604052508101906200025f919062000391565b6200026b919062000448565b600a60030181905550612710600860003373ffffffffffffffffffffffffffffffffffffffff1673ffffffffffffffffffffffffffffffffffffffff16815260200190815260200160002081905550612710600960003373ffffffffffffffffffffffffffffffffffffffff1673ffffffffffffffffffffffffffffffffffffffff16815260200190815260200160002081905550600a60010154600a60000154620003189190620003eb565b600a60020181905550600c600760003373ffffffffffffffffffffffffffffffffffffffff1673ffffffffffffffffffffffffffffffffffffffff1681526020019081526020016000208190555062000530565b6110418062001e4483390190565b6000815190506200038b8162000516565b92915050565b600060208284031215620003a457600080fd5b6000620003b4848285016200037a565b91505092915050565b620003c881620004a9565b82525050565b6000602082019050620003e56000830184620003bd565b92915050565b6000620003f882620004dd565b91506200040583620004dd565b9250827fffffffffffffffffffffffffffffffffffffffffffffffffffffffffffffffff038211156200043d576200043c620004e7565b5b828201905092915050565b60006200045582620004dd565b91506200046283620004dd565b9250817fffffffffffffffffffffffffffffffffffffffffffffffffffffffffffffffff04831182151516156200049e576200049d620004e7565b5b828202905092915050565b6000620004b682620004bd565b9050919050565b600073ffffffffffffffffffffffffffffffffffffffff82169050919050565b6000819050919050565b7f4e487b7100000000000000000000000000000000000000000000000000000000600052601160045260246000fd5b6200052181620004dd565b81146200052d57600080fd5b50565b61190480620005406000396000f3fe608060405234801561001057600080fd5b506004361061010b5760003560e01c8063980d69d3116100a2578063cdb0a59911610071578063cdb0a59914610311578063d21220a71461032f578063d3817b4a1461034d578063ee1d59c51461037d578063f4cb34d4146103ad5761010b565b8063980d69d314610261578063a288ca8614610291578063aca34c11146102c1578063c02a7e40146102e15761010b565b8063513b6b18116100de578063513b6b18146101bf578063665a11ca146101df5780637a16af7f146102005780637f5e30d8146102305761010b565b806325be124e146101105780632e1a7d4d1461012e5780632ef664441461015f578063450177c61461018f575b600080fd5b6101186103dd565b6040516101259190611517565b60405180910390f35b61014860048036038101906101439190611308565b610403565b6040516101569291906115ed565b60405180910390f35b610179600480360381019061017491906112df565b6106a9565b60405161018691906115d2565b60405180910390f35b6101a960048036038101906101a49190611308565b6106c1565b6040516101b691906115d2565b60405180910390f35b6101c761077f565b6040516101d693929190611616565b60405180910390f35b6101e761084f565b6040516101f7949392919061164d565b60405180910390f35b61021a60048036038101906102159190611331565b61086d565b60405161022791906115d2565b60405180910390f35b61024a60048036038101906102459190611308565b610bd4565b6040516102589291906115ed565b60405180910390f35b61027b60048036038101906102769190611308565b610cc0565b60405161028891906115d2565b60405180910390f35b6102ab60048036038101906102a691906112df565b610ec6565b6040516102b891906115d2565b60405180910390f35b6102c9610ede565b6040516102d893929190611616565b60405180910390f35b6102fb60048036038101906102f691906112df565b610f00565b60405161030891906115d2565b60405180910390f35b610319610f18565b60405161032691906115d2565b60405180910390f35b610337610f5f565b6040516103449190611517565b60405180910390f35b61036760048036038101906103629190611308565b610f83565b60405161037491906115d2565b60405180910390f35b61039760048036038101906103929190611331565b611041565b6040516103a491906115d2565b60405180910390f35b6103c760048036038101906103c29190611308565b611057565b6040516103d491906115d2565b60405180910390f35b600160009054906101000a900473ffffffffffffffffffffffffffffffffffffffff1681565b6000806000600a600301541161044e576040517f08c379a000000000000000000000000000000000000000000000000000000000815260040161044590611532565b60405180910390fd5b60078360008111610494576040517f08c379a000000000000000000000000000000000000000000000000000000000815260040161048b906115b2565b60405180910390fd5b8160003373ffffffffffffffffffffffffffffffffffffffff1673ffffffffffffffffffffffffffffffffffffffff16815260200190815260200160002054811115610515576040517f08c379a000000000000000000000000000000000000000000000000000000000815260040161050c90611592565b60405180910390fd5b61051e85610bd4565b809450819550505084600760003373ffffffffffffffffffffffffffffffffffffffff1673ffffffffffffffffffffffffffffffffffffffff16815260200190815260200160002060008282546105759190611784565b9250508190555084600a60020160008282546105919190611784565b9250508190555083600a60000160008282546105ad9190611784565b9250508190555082600a60010160008282546105c99190611784565b925050819055506105ed600a60010154600a6000015461125d90919063ffffffff16565b600a6003018190555083600860003373ffffffffffffffffffffffffffffffffffffffff1673ffffffffffffffffffffffffffffffffffffffff168152602001908152602001600020600082825461064591906116a3565b9250508190555082600960003373ffffffffffffffffffffffffffffffffffffffff1673ffffffffffffffffffffffffffffffffffffffff168152602001908152602001600020600082825461069b91906116a3565b925050819055505050915091565b60086020528060005260406000206000915090505481565b600080600a600301541161070a576040517f08c379a000000000000000000000000000000000000000000000000000000000815260040161070190611532565b60405180910390fd5b600061072483600a6000015461127390919063ffffffff16565b9050600061074082600a6003015461128990919063ffffffff16565b905061075a81600a6001015461129f90919063ffffffff16565b9250600a6001015483141561077857828061077490611818565b9350505b5050919050565b6000806000600860003373ffffffffffffffffffffffffffffffffffffffff1673ffffffffffffffffffffffffffffffffffffffff168152602001908152602001600020549250600960003373ffffffffffffffffffffffffffffffffffffffff1673ffffffffffffffffffffffffffffffffffffffff168152602001908152602001600020549150600760003373ffffffffffffffffffffffffffffffffffffffff1673ffffffffffffffffffffffffffffffffffffffff168152602001908152602001600020549050909192565b600a8060000154908060010154908060020154908060030154905084565b6000600883600081116108b5576040517f08c379a00000000000000000000000000000000000000000000000000000000081526004016108ac906115b2565b60405180910390fd5b8160003373ffffffffffffffffffffffffffffffffffffffff1673ffffffffffffffffffffffffffffffffffffffff16815260200190815260200160002054811115610936576040517f08c379a000000000000000000000000000000000000000000000000000000000815260040161092d90611592565b60405180910390fd5b6009846000811161097c576040517f08c379a0000000000000000000000000000000000000000000000000000000008152600401610973906115b2565b60405180910390fd5b8160003373ffffffffffffffffffffffffffffffffffffffff1673ffffffffffffffffffffffffffffffffffffffff168152602001908152602001600020548111156109fd576040517f08c379a00000000000000000000000000000000000000000000000000000000081526004016109f490611592565b60405180910390fd5b8587610a0991906116a3565b945060008511610a4e576040517f08c379a0000000000000000000000000000000000000000000000000000000008152600401610a4590611552565b60405180910390fd5b86600860003373ffffffffffffffffffffffffffffffffffffffff1673ffffffffffffffffffffffffffffffffffffffff1681526020019081526020016000206000828254610a9d9190611784565b9250508190555085600960003373ffffffffffffffffffffffffffffffffffffffff1673ffffffffffffffffffffffffffffffffffffffff1681526020019081526020016000206000828254610af39190611784565b9250508190555086600a6000016000828254610b0f91906116a3565b9250508190555085600a6001016000828254610b2b91906116a3565b92505081905550610b4f600a60010154600a6000015461125d90919063ffffffff16565b600a6003018190555084600a6002016000828254610b6d91906116a3565b9250508190555084600760003373ffffffffffffffffffffffffffffffffffffffff1673ffffffffffffffffffffffffffffffffffffffff1681526020019081526020016000206000828254610bc391906116a3565b925050819055505050505092915050565b600080600760003373ffffffffffffffffffffffffffffffffffffffff1673ffffffffffffffffffffffffffffffffffffffff16815260200190815260200160002054831115610c59576040517f08c379a0000000000000000000000000000000000000000000000000000000008152600401610c5090611572565b60405180910390fd5b610c88600a60020154610c7a600a600001548661125d90919063ffffffff16565b61128990919063ffffffff16565b9150610cb9600a60020154610cab600a600101548661125d90919063ffffffff16565b61128990919063ffffffff16565b9050915091565b600080600a6003015411610d09576040517f08c379a0000000000000000000000000000000000000000000000000000000008152600401610d0090611532565b60405180910390fd5b60098260008111610d4f576040517f08c379a0000000000000000000000000000000000000000000000000000000008152600401610d46906115b2565b60405180910390fd5b8160003373ffffffffffffffffffffffffffffffffffffffff1673ffffffffffffffffffffffffffffffffffffffff16815260200190815260200160002054811115610dd0576040517f08c379a0000000000000000000000000000000000000000000000000000000008152600401610dc790611592565b60405180910390fd5b610dd984610f83565b925083600960003373ffffffffffffffffffffffffffffffffffffffff1673ffffffffffffffffffffffffffffffffffffffff1681526020019081526020016000206000828254610e2a9190611784565b9250508190555083600a6001016000828254610e4691906116a3565b9250508190555082600a6000016000828254610e629190611784565b9250508190555082600860003373ffffffffffffffffffffffffffffffffffffffff1673ffffffffffffffffffffffffffffffffffffffff1681526020019081526020016000206000828254610eb891906116a3565b925050819055505050919050565b60076020528060005260406000206000915090505481565b6000806000600a60000154600a60010154600a60020154925092509250909192565b60096020528060005260406000206000915090505481565b6000600760003373ffffffffffffffffffffffffffffffffffffffff1673ffffffffffffffffffffffffffffffffffffffff16815260200190815260200160002054905090565b60008054906101000a900473ffffffffffffffffffffffffffffffffffffffff1681565b600080600a6003015411610fcc576040517f08c379a0000000000000000000000000000000000000000000000000000000008152600401610fc390611532565b60405180910390fd5b6000610fe683600a6001015461127390919063ffffffff16565b9050600061100282600a6003015461128990919063ffffffff16565b905061101c81600a6000015461129f90919063ffffffff16565b9250600a6000015483141561103a57828061103690611818565b9350505b5050919050565b6000818361104f91906116a3565b905092915050565b600080600a60030154116110a0576040517f08c379a000000000000000000000000000000000000000000000000000000000815260040161109790611532565b60405180910390fd5b600882600081116110e6576040517f08c379a00000000000000000000000000000000000000000000000000000000081526004016110dd906115b2565b60405180910390fd5b8160003373ffffffffffffffffffffffffffffffffffffffff1673ffffffffffffffffffffffffffffffffffffffff16815260200190815260200160002054811115611167576040517f08c379a000000000000000000000000000000000000000000000000000000000815260040161115e90611592565b60405180910390fd5b611170846106c1565b925083600860003373ffffffffffffffffffffffffffffffffffffffff1673ffffffffffffffffffffffffffffffffffffffff16815260200190815260200160002060008282546111c19190611784565b9250508190555083600a60000160008282546111dd91906116a3565b9250508190555082600a60010160008282546111f99190611784565b9250508190555082600960003373ffffffffffffffffffffffffffffffffffffffff1673ffffffffffffffffffffffffffffffffffffffff168152602001908152602001600020600082825461124f91906116a3565b925050819055505050919050565b6000818361126b919061172a565b905092915050565b6000818361128191906116a3565b905092915050565b6000818361129791906116f9565b905092915050565b600081836112ad9190611784565b905092915050565b6000813590506112c4816118a0565b92915050565b6000813590506112d9816118b7565b92915050565b6000602082840312156112f157600080fd5b60006112ff848285016112b5565b91505092915050565b60006020828403121561131a57600080fd5b6000611328848285016112ca565b91505092915050565b6000806040838503121561134457600080fd5b6000611352858286016112ca565b9250506020611363858286016112ca565b9150509250929050565b611376816117f4565b82525050565b6000611389600e83611692565b91507f5a65726f204c69717569646974790000000000000000000000000000000000006000830152602082019050919050565b60006113c9603183611692565b91507f41737365742076616c7565206c657373207468616e207468726573686f6c642060008301527f666f7220636f6e747269627574696f6e210000000000000000000000000000006020830152604082019050919050565b600061142f603f83611692565b91507f456e7465726564204c5020546f6b656e2073686f756c64206265206c6573732060008301527f7468616e20746f74616c204c5020546f6b656e206f662070726f7669646572006020830152604082019050919050565b6000611495601383611692565b91507f496e73756666696369656e7420616d6f756e74000000000000000000000000006000830152602082019050919050565b60006114d5601683611692565b91507f416d6f756e742063616e6e6f74206265207a65726f21000000000000000000006000830152602082019050919050565b611511816117ea565b82525050565b600060208201905061152c600083018461136d565b92915050565b6000602082019050818103600083015261154b8161137c565b9050919050565b6000602082019050818103600083015261156b816113bc565b9050919050565b6000602082019050818103600083015261158b81611422565b9050919050565b600060208201905081810360008301526115ab81611488565b9050919050565b600060208201905081810360008301526115cb816114c8565b9050919050565b60006020820190506115e76000830184611508565b92915050565b60006040820190506116026000830185611508565b61160f6020830184611508565b9392505050565b600060608201905061162b6000830186611508565b6116386020830185611508565b6116456040830184611508565b949350505050565b60006080820190506116626000830187611508565b61166f6020830186611508565b61167c6040830185611508565b6116896060830184611508565b95945050505050565b600082825260208201905092915050565b60006116ae826117ea565b91506116b9836117ea565b9250827fffffffffffffffffffffffffffffffffffffffffffffffffffffffffffffffff038211156116ee576116ed611842565b5b828201905092915050565b6000611704826117ea565b915061170f836117ea565b92508261171f5761171e611871565b5b828204905092915050565b6000611735826117ea565b9150611740836117ea565b9250817fffffffffffffffffffffffffffffffffffffffffffffffffffffffffffffffff048311821515161561177957611778611842565b5b828202905092915050565b600061178f826117ea565b915061179a836117ea565b9250828210156117ad576117ac611842565b5b828203905092915050565b60006117c3826117ca565b9050919050565b600073ffffffffffffffffffffffffffffffffffffffff82169050919050565b6000819050919050565b60006117ff82611806565b9050919050565b6000611811826117ca565b9050919050565b6000611823826117ea565b9150600082141561183757611836611842565b5b600182039050919050565b7f4e487b7100000000000000000000000000000000000000000000000000000000600052601160045260246000fd5b7f4e487b7100000000000000000000000000000000000000000000000000000000600052601260045260246000fd5b6118a9816117b8565b81146118b457600080fd5b50565b6118c0816117ea565b81146118cb57600080fd5b5056fea264697066735822122083050a60c5c98b2de2c02de8b3c3325b6dfd0bdb79f8437af8d94116397d12f664736f6c6343000800003360806040526103e860055534801561001657600080fd5b5061101b806100266000396000f3fe608060405234801561001057600080fd5b50600436106100b45760003560e01c806370a082311161007157806370a082311461019157806395d89b41146101c1578063a9059cbb146101df578063b09f12661461020f578063d28d88521461022d578063dd62ed3e1461024b576100b4565b806306fdde03146100b9578063095ea7b3146100d757806318160ddd1461010757806323b872dd14610125578063313ce5671461015557806332424aa314610173575b600080fd5b6100c161027b565b6040516100ce9190610d90565b60405180910390f35b6100f160048036038101906100ec9190610cd3565b61030d565b6040516100fe9190610d75565b60405180910390f35b61010f6103ff565b60405161011c9190610db2565b60405180910390f35b61013f600480360381019061013a9190610c84565b610409565b60405161014c9190610d75565b60405180910390f35b61015d610774565b60405161016a9190610dcd565b60405180910390f35b61017b61078b565b6040516101889190610dcd565b60405180910390f35b6101ab60048036038101906101a69190610c1f565b61079e565b6040516101b89190610db2565b60405180910390f35b6101c96107e7565b6040516101d69190610d90565b60405180910390f35b6101f960048036038101906101f49190610cd3565b610879565b6040516102069190610d75565b60405180910390f35b610217610a52565b6040516102249190610d90565b60405180910390f35b610235610ae0565b6040516102429190610d90565b60405180910390f35b61026560048036038101906102609190610c48565b610b6e565b6040516102729190610db2565b60405180910390f35b60606000805461028a90610f16565b80601f01602080910402602001604051908101604052809291908181526020018280546102b690610f16565b80156103035780601f106102d857610100808354040283529160200191610303565b820191906000526020600020905b8154815290600101906020018083116102e657829003601f168201915b5050505050905090565b600081600460003373ffffffffffffffffffffffffffffffffffffffff1673ffffffffffffffffffffffffffffffffffffffff16815260200190815260200160002060008573ffffffffffffffffffffffffffffffffffffffff1673ffffffffffffffffffffffffffffffffffffffff168152602001908152602001600020819055508273ffffffffffffffffffffffffffffffffffffffff163373ffffffffffffffffffffffffffffffffffffffff167f8c5be1e5ebec7d5bd14f71427d1e84f3dd0314c0f7b2291e5b200ac8c7c3b925846040516103ed9190610db2565b60405180910390a36001905092915050565b6000600554905090565b6000600360008573ffffffffffffffffffffffffffffffffffffffff1673ffffffffffffffffffffffffffffffffffffffff1681526020019081526020016000205482111561045757600080fd5b600460008573ffffffffffffffffffffffffffffffffffffffff1673ffffffffffffffffffffffffffffffffffffffff16815260200190815260200160002060003373ffffffffffffffffffffffffffffffffffffffff1673ffffffffffffffffffffffffffffffffffffffff168152602001908152602001600020548211156104e057600080fd5b81600360008673ffffffffffffffffffffffffffffffffffffffff1673ffffffffffffffffffffffffffffffffffffffff1681526020019081526020016000205461052b9190610e5a565b600360008673ffffffffffffffffffffffffffffffffffffffff1673ffffffffffffffffffffffffffffffffffffffff1681526020019081526020016000208190555081600460008673ffffffffffffffffffffffffffffffffffffffff1673ffffffffffffffffffffffffffffffffffffffff16815260200190815260200160002060003373ffffffffffffffffffffffffffffffffffffffff1673ffffffffffffffffffffffffffffffffffffffff168152602001908152602001600020546105f69190610e04565b600460008673ffffffffffffffffffffffffffffffffffffffff1673ffffffffffffffffffffffffffffffffffffffff16815260200190815260200160002060003373ffffffffffffffffffffffffffffffffffffffff1673ffffffffffffffffffffffffffffffffffffffff1681526020019081526020016000208190555081600360008573ffffffffffffffffffffffffffffffffffffffff1673ffffffffffffffffffffffffffffffffffffffff168152602001908152602001600020546106c19190610e04565b600360008573ffffffffffffffffffffffffffffffffffffffff1673ffffffffffffffffffffffffffffffffffffffff168152602001908152602001600020819055508273ffffffffffffffffffffffffffffffffffffffff168473ffffffffffffffffffffffffffffffffffffffff167fddf252ad1be2c89b69c2b068fc378daa952ba7f163c4a11628f55a4df523b3ef846040516107619190610db2565b60405180910390a3600190509392505050565b6000600260009054906101000a900460ff16905090565b600260009054906101000a900460ff1681565b6000600360008373ffffffffffffffffffffffffffffffffffffffff1673ffffffffffffffffffffffffffffffffffffffff168152602001908152602001600020549050919050565b6060600180546107f690610f16565b80601f016020809104026020016040519081016040528092919081815260200182805461082290610f16565b801561086f5780601f106108445761010080835404028352916020019161086f565b820191906000526020600020905b81548152906001019060200180831161085257829003601f168201915b5050505050905090565b6000600360003373ffffffffffffffffffffffffffffffffffffffff1673ffffffffffffffffffffffffffffffffffffffff168152602001908152602001600020548211156108c757600080fd5b81600360003373ffffffffffffffffffffffffffffffffffffffff1673ffffffffffffffffffffffffffffffffffffffff168152602001908152602001600020546109129190610e5a565b600360003373ffffffffffffffffffffffffffffffffffffffff1673ffffffffffffffffffffffffffffffffffffffff1681526020019081526020016000208190555081600360008573ffffffffffffffffffffffffffffffffffffffff1673ffffffffffffffffffffffffffffffffffffffff168152602001908152602001600020546109a09190610e04565b600360008573ffffffffffffffffffffffffffffffffffffffff1673ffffffffffffffffffffffffffffffffffffffff168152602001908152602001600020819055508273ffffffffffffffffffffffffffffffffffffffff163373ffffffffffffffffffffffffffffffffffffffff167fddf252ad1be2c89b69c2b068fc378daa952ba7f163c4a11628f55a4df523b3ef84604051610a409190610db2565b60405180910390a36001905092915050565b60018054610a5f90610f16565b80601f0160208091040260200160405190810160405280929190818152602001828054610a8b90610f16565b8015610ad85780601f10610aad57610100808354040283529160200191610ad8565b820191906000526020600020905b815481529060010190602001808311610abb57829003601f168201915b505050505081565b60008054610aed90610f16565b80601f0160208091040260200160405190810160405280929190818152602001828054610b1990610f16565b8015610b665780601f10610b3b57610100808354040283529160200191610b66565b820191906000526020600020905b815481529060010190602001808311610b4957829003601f168201915b505050505081565b6000600460008473ffffffffffffffffffffffffffffffffffffffff1673ffffffffffffffffffffffffffffffffffffffff16815260200190815260200160002060008373ffffffffffffffffffffffffffffffffffffffff1673ffffffffffffffffffffffffffffffffffffffff16815260200190815260200160002054905092915050565b600081359050610c0481610fb7565b92915050565b600081359050610c1981610fce565b92915050565b600060208284031215610c3157600080fd5b6000610c3f84828501610bf5565b91505092915050565b60008060408385031215610c5b57600080fd5b6000610c6985828601610bf5565b9250506020610c7a85828601610bf5565b9150509250929050565b600080600060608486031215610c9957600080fd5b6000610ca786828701610bf5565b9350506020610cb886828701610bf5565b9250506040610cc986828701610c0a565b9150509250925092565b60008060408385031215610ce657600080fd5b6000610cf485828601610bf5565b9250506020610d0585828601610c0a565b9150509250929050565b610d1881610ea0565b82525050565b6000610d2982610de8565b610d338185610df3565b9350610d43818560208601610ee3565b610d4c81610fa6565b840191505092915050565b610d6081610ecc565b82525050565b610d6f81610ed6565b82525050565b6000602082019050610d8a6000830184610d0f565b92915050565b60006020820190508181036000830152610daa8184610d1e565b905092915050565b6000602082019050610dc76000830184610d57565b92915050565b6000602082019050610de26000830184610d66565b92915050565b600081519050919050565b600082825260208201905092915050565b6000610e0f82610ecc565b9150610e1a83610ecc565b9250827fffffffffffffffffffffffffffffffffffffffffffffffffffffffffffffffff03821115610e4f57610e4e610f48565b5b828201905092915050565b6000610e6582610ecc565b9150610e7083610ecc565b925082821015610e8357610e82610f48565b5b828203905092915050565b6000610e9982610eac565b9050919050565b60008115159050919050565b600073ffffffffffffffffffffffffffffffffffffffff82169050919050565b6000819050919050565b600060ff82169050919050565b60005b83811015610f01578082015181840152602081019050610ee6565b83811115610f10576000848401525b50505050565b60006002820490506001821680610f2e57607f821691505b60208210811415610f4257610f41610f77565b5b50919050565b7f4e487b7100000000000000000000000000000000000000000000000000000000600052601160045260246000fd5b7f4e487b7100000000000000000000000000000000000000000000000000000000600052602260045260246000fd5b6000601f19601f8301169050919050565b610fc081610e8e565b8114610fcb57600080fd5b50565b610fd781610ecc565b8114610fe257600080fd5b5056fea26469706673582212205e3ab0c418d6e03f65c2dbaf623285401b1a50302644b3e50373c0f8ae44749c64736f6c63430008000033",
  "immutableReferences": {},
  "source": "//SPDX-License-Identifier: MIT\r\n\r\npragma solidity ^0.8.0;\r\nimport \"@openzeppelin/contracts/utils/math/SafeMath.sol\";\r\nimport \"./IERC20.sol\";\r\n\r\ncontract DragonSwap{\r\n    using SafeMath for uint256;\r\n\r\n    IERC20 public token1;\r\n    IERC20 public token2;\r\n    uint256 ETH_Token;     // ERC-20 Token\r\n    uint256 DRG_Token;     // ERC-20 Token\r\n    string name1;\r\n    string name2;\r\n    uint8 decimal;\r\n\r\n    struct LiquidityPool{\r\n        uint256 total_token_1;\r\n        uint256 total_token_2;\r\n        uint256 total_LPTokens;\r\n        uint256 K;  // constant from xyk model\r\n    }\r\n\r\n    mapping (address => uint) public LP_Tokens;  // store the LP token for each provider\r\n    mapping (address => uint) public token_1_balance;  // store token 1 balance of each user (LP provider / trader)\r\n    mapping (address => uint) public token_2_balance;  // store token 2 balance of each user (LP provider / trader)\r\n    LiquidityPool public liquidityPool;     // represent the pool\r\n\r\n    constructor(){\r\n        token1 = new ERC20Basic();\r\n        token2 = new ERC20Basic();\r\n        liquidityPool.total_token_1 = 100; // 10 Ether\r\n        liquidityPool.total_token_2 = 250; // 10 Ether\r\n        liquidityPool.K = token1.balanceOf(address(this)) * token2.balanceOf(address(this));    // 10 ** 36 - constant \r\n        token_1_balance[msg.sender] = 10000;\r\n        token_2_balance[msg.sender] = 10000;\r\n        liquidityPool.total_LPTokens=liquidityPool.total_token_1 +liquidityPool.total_token_2;\r\n         LP_Tokens[msg.sender]=12;\r\n    }\r\n\r\n    // Ensures that the _qty is non-zero and the user has enough balance\r\n    modifier validAmountCheck(mapping(address => uint256) storage _balance, uint256 _qty) {\r\n        require(_qty > 0, \"Amount cannot be zero!\"); //entered amount cannot be 0\r\n        require(_qty <= _balance[msg.sender], \"Insufficient amount\"); //entered amount must less than or equal to sender balance\r\n        _;\r\n    }\r\n\r\n    // Ensure the pool have token 1 and token 2 balances\r\n    modifier activePool() {\r\n        require(liquidityPool.K > 0, \"Zero Liquidity\");\r\n        _;\r\n    }\r\n\r\n    function getProviderLPToken() external view returns(uint256){\r\n        return LP_Tokens[msg.sender];\r\n    }\r\n\r\n    // Returns the total amount of tokens locked in the pool and the total shares issued corresponding to it\r\n    function getPoolDetails() external view returns(uint256, uint256, uint256) {\r\n        return (liquidityPool.total_token_1, liquidityPool.total_token_2, liquidityPool.total_LPTokens);\r\n    }\r\n\r\n    function LPToken(uint256 _amountToken1, uint256 _amountToken2) external pure returns(uint256 amountLPToken) {\r\n        amountLPToken = _amountToken1 + _amountToken2;\r\n        return amountLPToken;\r\n    }\r\n\r\n    // Returns the balance of the user\r\n    function checkMyBalances() external view returns(uint256 amountToken1, uint256 amountToken2, uint256 LP_Token) {\r\n        amountToken1 = token_1_balance[msg.sender];\r\n        amountToken2 = token_2_balance[msg.sender];\r\n        LP_Token = LP_Tokens[msg.sender];\r\n    }\r\n\r\n    /* Provide more token 1 and token 2 into the pool - Expands the pool\r\n    ** 1. Calculate LP token for LP provider \r\n    ** 2. Reduce amount token1 and token2 from user balances\r\n    ** 3. Increase the total amount token 1 and token 2\r\n    ** 4. Calculate new constant\r\n    ** 5. Increase total amount of LP tokens in pool\r\n    ** 6. Assign the LP token calculated into user's LP token balances\r\n    */ \r\n    function provideLiquidity(uint256 _amountToken1, uint256 _amountToken2) validAmountCheck(token_1_balance, _amountToken1) validAmountCheck(token_2_balance, _amountToken2) public returns(uint256 LP_token){\r\n\r\n        LP_token = _amountToken1 + _amountToken2;\r\n\r\n        require(LP_token > 0, \"Asset value less than threshold for contribution!\");\r\n        token_1_balance[msg.sender] -= _amountToken1;\r\n        token_2_balance[msg.sender] -= _amountToken2;\r\n\r\n        liquidityPool.total_token_1 += _amountToken1;\r\n        liquidityPool.total_token_2 += _amountToken2;\r\n\r\n        liquidityPool.K = liquidityPool.total_token_1.mul(liquidityPool.total_token_2);\r\n\r\n        liquidityPool.total_LPTokens += LP_token;\r\n        LP_Tokens[msg.sender] += LP_token;\r\n    }\r\n\r\n    // Returns the estimate of Token1 & Token2 that will be released on burning given _LPToken\r\n     function getWithdrawTokenEstimate(uint256 _LPToken) public view returns(uint256 amountToken1, uint256 amountToken2) {\r\n        require(_LPToken <=LP_Tokens[msg.sender] , \"Entered LP Token should be less than total LP Token of provider\");\r\n        amountToken1 = _LPToken.mul(liquidityPool.total_token_1).div(liquidityPool.total_LPTokens); //used entered token, provider may not withdraw all the coin\r\n        amountToken2 = _LPToken.mul(liquidityPool.total_token_2).div(liquidityPool.total_LPTokens);\r\n    }\r\n\r\n\r\n    // Removes liquidity from the pool and releases corresponding Token1 & Token2 to the withdrawer\r\n    // _LPToken :entered by provider\r\n    // LP_Tokens:LP Token owned by provider\r\n    function withdraw(uint256 _LPToken) external activePool validAmountCheck(LP_Tokens, _LPToken) returns(uint256 amountToken1, uint256 amountToken2) {\r\n        (amountToken1, amountToken2) = getWithdrawTokenEstimate(_LPToken);\r\n        \r\n        LP_Tokens[msg.sender] -= _LPToken;\r\n        liquidityPool.total_LPTokens -= _LPToken;\r\n\r\n        liquidityPool.total_token_1 -= amountToken1;\r\n        liquidityPool.total_token_2 -= amountToken2;\r\n        liquidityPool.K= liquidityPool.total_token_1.mul(liquidityPool.total_token_2);\r\n\r\n        token_1_balance[msg.sender] += amountToken1;\r\n        token_2_balance[msg.sender] += amountToken2;\r\n    }\r\n\r\n    \r\n    // Returns the amount of Token2 that the user will get when swapping a given amount of Token1 for Token2\r\n    function getSwapToken1Estimate(uint256 _amountToken1) public view activePool returns(uint256 amountToken2) {\r\n        uint256 token1After = liquidityPool.total_token_1.add(_amountToken1);\r\n        uint256 token2After = liquidityPool.K.div(token1After);\r\n        amountToken2 = liquidityPool.total_token_2.sub(token2After);\r\n\r\n        // To ensure that Token2's pool is not completely depleted leading to inf:0 ratio\r\n        if(amountToken2 == liquidityPool.total_token_2) amountToken2--;\r\n    }\r\n    \r\n    // Swaps given amount of Token1 to Token2 using algorithmic price determination\r\n    function swapToken1(uint256 _amountToken1) external activePool validAmountCheck(token_1_balance, _amountToken1) returns(uint256 amountToken2) {\r\n        amountToken2 = getSwapToken1Estimate(_amountToken1);\r\n\r\n        token_1_balance[msg.sender] -= _amountToken1;\r\n        liquidityPool.total_token_1 += _amountToken1;\r\n        liquidityPool.total_token_2 -= amountToken2;\r\n        token_2_balance[msg.sender] += amountToken2;\r\n    }\r\n\r\n    // Returns the amount of Token2 that the user will get when swapping a given amount of Token1 for Token2\r\n    function getSwapToken2Estimate(uint256 _amountToken2) public view activePool returns(uint256 amountToken1) {\r\n        uint256 token2After = liquidityPool.total_token_2.add(_amountToken2);\r\n        uint256 token1After = liquidityPool.K.div(token2After);\r\n        amountToken1 = liquidityPool.total_token_1.sub(token1After);\r\n\r\n        // To ensure that Token1's pool is not completely depleted leading to inf:0 ratio\r\n        if(amountToken1 == liquidityPool.total_token_1) amountToken1--;\r\n    }\r\n    \r\n    // Swaps given amount of Token2 to Token1 using algorithmic price determination\r\n    function swapToken2(uint256 _amountToken2) external activePool validAmountCheck(token_2_balance, _amountToken2) returns(uint256 amountToken1) {\r\n        amountToken1 = getSwapToken2Estimate(_amountToken2);\r\n\r\n        token_2_balance[msg.sender] -= _amountToken2;\r\n        liquidityPool.total_token_2 += _amountToken2;\r\n        liquidityPool.total_token_1 -= amountToken1;\r\n        token_1_balance[msg.sender] += amountToken1;\r\n    }\r\n}\r\n",
  "sourcePath": "C:\\Users\\zixua\\Documents\\rabbitswap\\contracts\\DragonSwap.sol",
  "compiler": {
    "name": "solc",
    "version": "0.8.0+commit.c7dfd78e.Emscripten.clang"
  },
  "schemaVersion": "3.4.4",
  "updatedAt": "2022-04-11T17:17:04.210Z",
  "networkType": "ethereum",
  "devdoc": {
    "kind": "dev",
    "methods": {},
    "version": 1
  },
  "userdoc": {
    "kind": "user",
    "methods": {},
    "version": 1
  }
}