{
  "contractName": "DragonSwap",
  "abi": [
    {
      "inputs": [],
      "stateMutability": "nonpayable",
      "type": "constructor"
    },
    {
      "inputs": [
        {
          "internalType": "address",
          "name": "",
          "type": "address"
        }
      ],
      "name": "LP_Tokens",
      "outputs": [
        {
          "internalType": "uint256",
          "name": "",
          "type": "uint256"
        }
      ],
      "stateMutability": "view",
      "type": "function",
      "constant": true
    },
    {
      "inputs": [],
      "name": "liquidityPool",
      "outputs": [
        {
          "internalType": "uint256",
          "name": "total_token_1",
          "type": "uint256"
        },
        {
          "internalType": "uint256",
          "name": "total_token_2",
          "type": "uint256"
        },
        {
          "internalType": "uint256",
          "name": "total_LPTokens",
          "type": "uint256"
        },
        {
          "internalType": "uint256",
          "name": "K",
          "type": "uint256"
        }
      ],
      "stateMutability": "view",
      "type": "function",
      "constant": true
    },
    {
      "inputs": [],
      "name": "token1",
      "outputs": [
        {
          "internalType": "contract IERC20",
          "name": "",
          "type": "address"
        }
      ],
      "stateMutability": "view",
      "type": "function",
      "constant": true
    },
    {
      "inputs": [],
      "name": "token2",
      "outputs": [
        {
          "internalType": "contract IERC20",
          "name": "",
          "type": "address"
        }
      ],
      "stateMutability": "view",
      "type": "function",
      "constant": true
    },
    {
      "inputs": [
        {
          "internalType": "address",
          "name": "",
          "type": "address"
        }
      ],
      "name": "token_1_balance",
      "outputs": [
        {
          "internalType": "uint256",
          "name": "",
          "type": "uint256"
        }
      ],
      "stateMutability": "view",
      "type": "function",
      "constant": true
    },
    {
      "inputs": [
        {
          "internalType": "address",
          "name": "",
          "type": "address"
        }
      ],
      "name": "token_2_balance",
      "outputs": [
        {
          "internalType": "uint256",
          "name": "",
          "type": "uint256"
        }
      ],
      "stateMutability": "view",
      "type": "function",
      "constant": true
    },
    {
      "inputs": [],
      "name": "getProviderLPToken",
      "outputs": [
        {
          "internalType": "uint256",
          "name": "",
          "type": "uint256"
        }
      ],
      "stateMutability": "view",
      "type": "function",
      "constant": true
    },
    {
      "inputs": [],
      "name": "getPoolDetails",
      "outputs": [
        {
          "internalType": "uint256",
          "name": "",
          "type": "uint256"
        },
        {
          "internalType": "uint256",
          "name": "",
          "type": "uint256"
        },
        {
          "internalType": "uint256",
          "name": "",
          "type": "uint256"
        }
      ],
      "stateMutability": "view",
      "type": "function",
      "constant": true
    },
    {
      "inputs": [
        {
          "internalType": "uint256",
          "name": "_amountToken1",
          "type": "uint256"
        },
        {
          "internalType": "uint256",
          "name": "_amountToken2",
          "type": "uint256"
        }
      ],
      "name": "LPToken",
      "outputs": [
        {
          "internalType": "uint256",
          "name": "amountLPToken",
          "type": "uint256"
        }
      ],
      "stateMutability": "pure",
      "type": "function",
      "constant": true
    },
    {
      "inputs": [],
      "name": "checkMyBalances",
      "outputs": [
        {
          "internalType": "uint256",
          "name": "amountToken1",
          "type": "uint256"
        },
        {
          "internalType": "uint256",
          "name": "amountToken2",
          "type": "uint256"
        },
        {
          "internalType": "uint256",
          "name": "LP_Token",
          "type": "uint256"
        }
      ],
      "stateMutability": "view",
      "type": "function",
      "constant": true
    },
    {
      "inputs": [
        {
          "internalType": "uint256",
          "name": "_amountToken2",
          "type": "uint256"
        }
      ],
      "name": "getEquivalentToken1Estimate",
      "outputs": [
        {
          "internalType": "uint256",
          "name": "reqToken1",
          "type": "uint256"
        }
      ],
      "stateMutability": "view",
      "type": "function",
      "constant": true
    },
    {
      "inputs": [
        {
          "internalType": "uint256",
          "name": "_amountToken1",
          "type": "uint256"
        }
      ],
      "name": "getEquivalentToken2Estimate",
      "outputs": [
        {
          "internalType": "uint256",
          "name": "reqToken2",
          "type": "uint256"
        }
      ],
      "stateMutability": "view",
      "type": "function",
      "constant": true
    },
    {
      "inputs": [
        {
          "internalType": "uint256",
          "name": "_amountToken1",
          "type": "uint256"
        },
        {
          "internalType": "uint256",
          "name": "_amountToken2",
          "type": "uint256"
        }
      ],
      "name": "provideLiquidity",
      "outputs": [
        {
          "internalType": "uint256",
          "name": "LP_token",
          "type": "uint256"
        }
      ],
      "stateMutability": "nonpayable",
      "type": "function"
    },
    {
      "inputs": [
        {
          "internalType": "uint256",
          "name": "_LPToken",
          "type": "uint256"
        }
      ],
      "name": "getWithdrawTokenEstimate",
      "outputs": [
        {
          "internalType": "uint256",
          "name": "amountToken1",
          "type": "uint256"
        },
        {
          "internalType": "uint256",
          "name": "amountToken2",
          "type": "uint256"
        }
      ],
      "stateMutability": "view",
      "type": "function",
      "constant": true
    },
    {
      "inputs": [
        {
          "internalType": "uint256",
          "name": "_LPToken",
          "type": "uint256"
        }
      ],
      "name": "withdraw",
      "outputs": [
        {
          "internalType": "uint256",
          "name": "amountToken1",
          "type": "uint256"
        },
        {
          "internalType": "uint256",
          "name": "amountToken2",
          "type": "uint256"
        }
      ],
      "stateMutability": "nonpayable",
      "type": "function"
    },
    {
      "inputs": [
        {
          "internalType": "uint256",
          "name": "_amountToken1",
          "type": "uint256"
        }
      ],
      "name": "getSwapToken1Estimate",
      "outputs": [
        {
          "internalType": "uint256",
          "name": "amountToken2",
          "type": "uint256"
        }
      ],
      "stateMutability": "view",
      "type": "function",
      "constant": true
    },
    {
      "inputs": [
        {
          "internalType": "uint256",
          "name": "_amountToken2",
          "type": "uint256"
        }
      ],
      "name": "getSwapToken1EstimateGivenToken2",
      "outputs": [
        {
          "internalType": "uint256",
          "name": "amountToken1",
          "type": "uint256"
        }
      ],
      "stateMutability": "view",
      "type": "function",
      "constant": true
    },
    {
      "inputs": [
        {
          "internalType": "uint256",
          "name": "_amountToken1",
          "type": "uint256"
        }
      ],
      "name": "swapToken1",
      "outputs": [
        {
          "internalType": "uint256",
          "name": "amountToken2",
          "type": "uint256"
        }
      ],
      "stateMutability": "nonpayable",
      "type": "function"
    },
    {
      "inputs": [
        {
          "internalType": "uint256",
          "name": "_amountToken2",
          "type": "uint256"
        }
      ],
      "name": "getSwapToken2Estimate",
      "outputs": [
        {
          "internalType": "uint256",
          "name": "amountToken1",
          "type": "uint256"
        }
      ],
      "stateMutability": "view",
      "type": "function",
      "constant": true
    },
    {
      "inputs": [
        {
          "internalType": "uint256",
          "name": "_amountToken1",
          "type": "uint256"
        }
      ],
      "name": "getSwapToken2EstimateGivenToken1",
      "outputs": [
        {
          "internalType": "uint256",
          "name": "amountToken2",
          "type": "uint256"
        }
      ],
      "stateMutability": "view",
      "type": "function",
      "constant": true
    },
    {
      "inputs": [
        {
          "internalType": "uint256",
          "name": "_amountToken2",
          "type": "uint256"
        }
      ],
      "name": "swapToken2",
      "outputs": [
        {
          "internalType": "uint256",
          "name": "amountToken1",
          "type": "uint256"
        }
      ],
      "stateMutability": "nonpayable",
      "type": "function"
    }
  ],
  "bytecode": "0x60806040523480156200001157600080fd5b506040516200002090620004ec565b604051809103906000f0801580156200003d573d6000803e3d6000fd5b506000806101000a81548173ffffffffffffffffffffffffffffffffffffffff021916908373ffffffffffffffffffffffffffffffffffffffff1602179055506040516200008b90620004ec565b604051809103906000f080158015620000a8573d6000803e3d6000fd5b50600160006101000a81548173ffffffffffffffffffffffffffffffffffffffff021916908373ffffffffffffffffffffffffffffffffffffffff1602179055506064600a6000018190555060fa600a6001018190555060008054906101000a900473ffffffffffffffffffffffffffffffffffffffff1673ffffffffffffffffffffffffffffffffffffffff166306fdde036040518163ffffffff1660e01b815260040160006040518083038186803b1580156200016657600080fd5b505afa1580156200017b573d6000803e3d6000fd5b505050506040513d6000823e3d601f19601f82011682018060405250810190620001a6919062000633565b60049080519060200190620001bd929190620004fa565b50600160009054906101000a900473ffffffffffffffffffffffffffffffffffffffff1673ffffffffffffffffffffffffffffffffffffffff166306fdde036040518163ffffffff1660e01b815260040160006040518083038186803b1580156200022757600080fd5b505afa1580156200023c573d6000803e3d6000fd5b505050506040513d6000823e3d601f19601f8201168201806040525081019062000267919062000633565b600590805190602001906200027e929190620004fa565b50600160009054906101000a900473ffffffffffffffffffffffffffffffffffffffff1673ffffffffffffffffffffffffffffffffffffffff166370a08231306040518263ffffffff1660e01b8152600401620002dc9190620006b5565b60206040518083038186803b158015620002f557600080fd5b505afa1580156200030a573d6000803e3d6000fd5b505050506040513d601f19601f8201168201806040525081019062000330919062000678565b60008054906101000a900473ffffffffffffffffffffffffffffffffffffffff1673ffffffffffffffffffffffffffffffffffffffff166370a08231306040518263ffffffff1660e01b81526004016200038b9190620006b5565b60206040518083038186803b158015620003a457600080fd5b505afa158015620003b9573d6000803e3d6000fd5b505050506040513d601f19601f82011682018060405250810190620003df919062000678565b620003eb919062000796565b600a60030181905550612710600860003373ffffffffffffffffffffffffffffffffffffffff1673ffffffffffffffffffffffffffffffffffffffff16815260200190815260200160002081905550612710600960003373ffffffffffffffffffffffffffffffffffffffff1673ffffffffffffffffffffffffffffffffffffffff16815260200190815260200160002081905550600a60010154600a6000015462000498919062000739565b600a60020181905550600c600760003373ffffffffffffffffffffffffffffffffffffffff1673ffffffffffffffffffffffffffffffffffffffff1681526020019081526020016000208190555062000948565b611041806200267883390190565b82805462000508906200086b565b90600052602060002090601f0160209004810192826200052c576000855562000578565b82601f106200054757805160ff191683800117855562000578565b8280016001018555821562000578579182015b82811115620005775782518255916020019190600101906200055a565b5b5090506200058791906200058b565b5090565b5b80821115620005a65760008160009055506001016200058c565b5090565b6000620005c1620005bb8462000706565b620006d2565b905082815260208101848484011115620005da57600080fd5b620005e784828562000835565b509392505050565b600082601f8301126200060157600080fd5b815162000613848260208601620005aa565b91505092915050565b6000815190506200062d816200092e565b92915050565b6000602082840312156200064657600080fd5b600082015167ffffffffffffffff8111156200066157600080fd5b6200066f84828501620005ef565b91505092915050565b6000602082840312156200068b57600080fd5b60006200069b848285016200061c565b91505092915050565b620006af81620007f7565b82525050565b6000602082019050620006cc6000830184620006a4565b92915050565b6000604051905081810181811067ffffffffffffffff82111715620006fc57620006fb620008ff565b5b8060405250919050565b600067ffffffffffffffff821115620007245762000723620008ff565b5b601f19601f8301169050602081019050919050565b600062000746826200082b565b915062000753836200082b565b9250827fffffffffffffffffffffffffffffffffffffffffffffffffffffffffffffffff038211156200078b576200078a620008a1565b5b828201905092915050565b6000620007a3826200082b565b9150620007b0836200082b565b9250817fffffffffffffffffffffffffffffffffffffffffffffffffffffffffffffffff0483118215151615620007ec57620007eb620008a1565b5b828202905092915050565b600062000804826200080b565b9050919050565b600073ffffffffffffffffffffffffffffffffffffffff82169050919050565b6000819050919050565b60005b838110156200085557808201518184015260208101905062000838565b8381111562000865576000848401525b50505050565b600060028204905060018216806200088457607f821691505b602082108114156200089b576200089a620008d0565b5b50919050565b7f4e487b7100000000000000000000000000000000000000000000000000000000600052601160045260246000fd5b7f4e487b7100000000000000000000000000000000000000000000000000000000600052602260045260246000fd5b7f4e487b7100000000000000000000000000000000000000000000000000000000600052604160045260246000fd5b62000939816200082b565b81146200094557600080fd5b50565b611d2080620009586000396000f3fe608060405234801561001057600080fd5b50600436106101375760003560e01c80637f5e30d8116100b8578063cdb0a5991161007c578063cdb0a599146103cd578063d21220a7146103eb578063d212b44014610409578063d3817b4a14610439578063ee1d59c514610469578063f4cb34d41461049957610137565b80637f5e30d8146102ec578063980d69d31461031d578063a288ca861461034d578063aca34c111461037d578063c02a7e401461039d57610137565b8063450177c6116100ff578063450177c61461021b578063513b6b181461024b578063665a11ca1461026b5780637565a92b1461028c5780637a16af7f146102bc57610137565b8063078b7fdc1461013c57806325be124e1461016c5780632e1a7d4d1461018a5780632ef66444146101bb578063319bb38f146101eb575b600080fd5b610156600480360381019061015191906116c4565b6104c9565b60405161016391906119ee565b60405180910390f35b610174610548565b6040516101819190611913565b60405180910390f35b6101a4600480360381019061019f91906116c4565b61056e565b6040516101b2929190611a09565b60405180910390f35b6101d560048036038101906101d0919061169b565b610814565b6040516101e291906119ee565b60405180910390f35b610205600480360381019061020091906116c4565b61082c565b60405161021291906119ee565b60405180910390f35b610235600480360381019061023091906116c4565b6108ab565b60405161024291906119ee565b60405180910390f35b610253610969565b60405161026293929190611a32565b60405180910390f35b610273610a39565b6040516102839493929190611a69565b60405180910390f35b6102a660048036038101906102a191906116c4565b610a57565b6040516102b391906119ee565b60405180910390f35b6102d660048036038101906102d191906116ed565b610b40565b6040516102e391906119ee565b60405180910390f35b610306600480360381019061030191906116c4565b610ea7565b604051610314929190611a09565b60405180910390f35b610337600480360381019061033291906116c4565b610f93565b60405161034491906119ee565b60405180910390f35b6103676004803603810190610362919061169b565b611199565b60405161037491906119ee565b60405180910390f35b6103856111b1565b60405161039493929190611a32565b60405180910390f35b6103b760048036038101906103b2919061169b565b6111d3565b6040516103c491906119ee565b60405180910390f35b6103d56111eb565b6040516103e291906119ee565b60405180910390f35b6103f3611232565b6040516104009190611913565b60405180910390f35b610423600480360381019061041e91906116c4565b611256565b60405161043091906119ee565b60405180910390f35b610453600480360381019061044e91906116c4565b61133f565b60405161046091906119ee565b60405180910390f35b610483600480360381019061047e91906116ed565b6113fd565b60405161049091906119ee565b60405180910390f35b6104b360048036038101906104ae91906116c4565b611413565b6040516104c091906119ee565b60405180910390f35b600080600a6003015411610512576040517f08c379a00000000000000000000000000000000000000000000000000000000081526004016105099061192e565b60405180910390fd5b610541600a6001015461053384600a6000015461161990919063ffffffff16565b61162f90919063ffffffff16565b9050919050565b600160009054906101000a900473ffffffffffffffffffffffffffffffffffffffff1681565b6000806000600a60030154116105b9576040517f08c379a00000000000000000000000000000000000000000000000000000000081526004016105b09061192e565b60405180910390fd5b600783600081116105ff576040517f08c379a00000000000000000000000000000000000000000000000000000000081526004016105f6906119ce565b60405180910390fd5b8160003373ffffffffffffffffffffffffffffffffffffffff1673ffffffffffffffffffffffffffffffffffffffff16815260200190815260200160002054811115610680576040517f08c379a0000000000000000000000000000000000000000000000000000000008152600401610677906119ae565b60405180910390fd5b61068985610ea7565b809450819550505084600760003373ffffffffffffffffffffffffffffffffffffffff1673ffffffffffffffffffffffffffffffffffffffff16815260200190815260200160002060008282546106e09190611ba0565b9250508190555084600a60020160008282546106fc9190611ba0565b9250508190555083600a60000160008282546107189190611ba0565b9250508190555082600a60010160008282546107349190611ba0565b92505081905550610758600a60010154600a6000015461161990919063ffffffff16565b600a6003018190555083600860003373ffffffffffffffffffffffffffffffffffffffff1673ffffffffffffffffffffffffffffffffffffffff16815260200190815260200160002060008282546107b09190611abf565b9250508190555082600960003373ffffffffffffffffffffffffffffffffffffffff1673ffffffffffffffffffffffffffffffffffffffff16815260200190815260200160002060008282546108069190611abf565b925050819055505050915091565b60086020528060005260406000206000915090505481565b600080600a6003015411610875576040517f08c379a000000000000000000000000000000000000000000000000000000000815260040161086c9061192e565b60405180910390fd5b6108a4600a6000015461089684600a6001015461161990919063ffffffff16565b61162f90919063ffffffff16565b9050919050565b600080600a60030154116108f4576040517f08c379a00000000000000000000000000000000000000000000000000000000081526004016108eb9061192e565b60405180910390fd5b600061090e83600a6000015461164590919063ffffffff16565b9050600061092a82600a6003015461162f90919063ffffffff16565b905061094481600a6001015461165b90919063ffffffff16565b9250600a6001015483141561096257828061095e90611c34565b9350505b5050919050565b6000806000600860003373ffffffffffffffffffffffffffffffffffffffff1673ffffffffffffffffffffffffffffffffffffffff168152602001908152602001600020549250600960003373ffffffffffffffffffffffffffffffffffffffff1673ffffffffffffffffffffffffffffffffffffffff168152602001908152602001600020549150600760003373ffffffffffffffffffffffffffffffffffffffff1673ffffffffffffffffffffffffffffffffffffffff168152602001908152602001600020549050909192565b600a8060000154908060010154908060020154908060030154905084565b600080600a6003015411610aa0576040517f08c379a0000000000000000000000000000000000000000000000000000000008152600401610a979061192e565b60405180910390fd5b600a600001548210610ae7576040517f08c379a0000000000000000000000000000000000000000000000000000000008152600401610ade9061194e565b60405180910390fd5b6000610b0183600a6000015461165b90919063ffffffff16565b90506000610b1d82600a6003015461162f90919063ffffffff16565b9050610b37600a600101548261165b90919063ffffffff16565b92505050919050565b600060088360008111610b88576040517f08c379a0000000000000000000000000000000000000000000000000000000008152600401610b7f906119ce565b60405180910390fd5b8160003373ffffffffffffffffffffffffffffffffffffffff1673ffffffffffffffffffffffffffffffffffffffff16815260200190815260200160002054811115610c09576040517f08c379a0000000000000000000000000000000000000000000000000000000008152600401610c00906119ae565b60405180910390fd5b60098460008111610c4f576040517f08c379a0000000000000000000000000000000000000000000000000000000008152600401610c46906119ce565b60405180910390fd5b8160003373ffffffffffffffffffffffffffffffffffffffff1673ffffffffffffffffffffffffffffffffffffffff16815260200190815260200160002054811115610cd0576040517f08c379a0000000000000000000000000000000000000000000000000000000008152600401610cc7906119ae565b60405180910390fd5b8587610cdc9190611abf565b945060008511610d21576040517f08c379a0000000000000000000000000000000000000000000000000000000008152600401610d189061196e565b60405180910390fd5b86600860003373ffffffffffffffffffffffffffffffffffffffff1673ffffffffffffffffffffffffffffffffffffffff1681526020019081526020016000206000828254610d709190611ba0565b9250508190555085600960003373ffffffffffffffffffffffffffffffffffffffff1673ffffffffffffffffffffffffffffffffffffffff1681526020019081526020016000206000828254610dc69190611ba0565b9250508190555086600a6000016000828254610de29190611abf565b9250508190555085600a6001016000828254610dfe9190611abf565b92505081905550610e22600a60010154600a6000015461161990919063ffffffff16565b600a6003018190555084600a6002016000828254610e409190611abf565b9250508190555084600760003373ffffffffffffffffffffffffffffffffffffffff1673ffffffffffffffffffffffffffffffffffffffff1681526020019081526020016000206000828254610e969190611abf565b925050819055505050505092915050565b600080600760003373ffffffffffffffffffffffffffffffffffffffff1673ffffffffffffffffffffffffffffffffffffffff16815260200190815260200160002054831115610f2c576040517f08c379a0000000000000000000000000000000000000000000000000000000008152600401610f239061198e565b60405180910390fd5b610f5b600a60020154610f4d600a600001548661161990919063ffffffff16565b61162f90919063ffffffff16565b9150610f8c600a60020154610f7e600a600101548661161990919063ffffffff16565b61162f90919063ffffffff16565b9050915091565b600080600a6003015411610fdc576040517f08c379a0000000000000000000000000000000000000000000000000000000008152600401610fd39061192e565b60405180910390fd5b60098260008111611022576040517f08c379a0000000000000000000000000000000000000000000000000000000008152600401611019906119ce565b60405180910390fd5b8160003373ffffffffffffffffffffffffffffffffffffffff1673ffffffffffffffffffffffffffffffffffffffff168152602001908152602001600020548111156110a3576040517f08c379a000000000000000000000000000000000000000000000000000000000815260040161109a906119ae565b60405180910390fd5b6110ac8461133f565b925083600960003373ffffffffffffffffffffffffffffffffffffffff1673ffffffffffffffffffffffffffffffffffffffff16815260200190815260200160002060008282546110fd9190611ba0565b9250508190555083600a60010160008282546111199190611abf565b9250508190555082600a60000160008282546111359190611ba0565b9250508190555082600860003373ffffffffffffffffffffffffffffffffffffffff1673ffffffffffffffffffffffffffffffffffffffff168152602001908152602001600020600082825461118b9190611abf565b925050819055505050919050565b60076020528060005260406000206000915090505481565b6000806000600a60000154600a60010154600a60020154925092509250909192565b60096020528060005260406000206000915090505481565b6000600760003373ffffffffffffffffffffffffffffffffffffffff1673ffffffffffffffffffffffffffffffffffffffff16815260200190815260200160002054905090565b60008054906101000a900473ffffffffffffffffffffffffffffffffffffffff1681565b600080600a600301541161129f576040517f08c379a00000000000000000000000000000000000000000000000000000000081526004016112969061192e565b60405180910390fd5b600a6001015482106112e6576040517f08c379a00000000000000000000000000000000000000000000000000000000081526004016112dd9061194e565b60405180910390fd5b600061130083600a6001015461165b90919063ffffffff16565b9050600061131c82600a6003015461162f90919063ffffffff16565b9050611336600a600001548261165b90919063ffffffff16565b92505050919050565b600080600a6003015411611388576040517f08c379a000000000000000000000000000000000000000000000000000000000815260040161137f9061192e565b60405180910390fd5b60006113a283600a6001015461164590919063ffffffff16565b905060006113be82600a6003015461162f90919063ffffffff16565b90506113d881600a6000015461165b90919063ffffffff16565b9250600a600001548314156113f65782806113f290611c34565b9350505b5050919050565b6000818361140b9190611abf565b905092915050565b600080600a600301541161145c576040517f08c379a00000000000000000000000000000000000000000000000000000000081526004016114539061192e565b60405180910390fd5b600882600081116114a2576040517f08c379a0000000000000000000000000000000000000000000000000000000008152600401611499906119ce565b60405180910390fd5b8160003373ffffffffffffffffffffffffffffffffffffffff1673ffffffffffffffffffffffffffffffffffffffff16815260200190815260200160002054811115611523576040517f08c379a000000000000000000000000000000000000000000000000000000000815260040161151a906119ae565b60405180910390fd5b61152c846108ab565b925083600860003373ffffffffffffffffffffffffffffffffffffffff1673ffffffffffffffffffffffffffffffffffffffff168152602001908152602001600020600082825461157d9190611ba0565b9250508190555083600a60000160008282546115999190611abf565b9250508190555082600a60010160008282546115b59190611ba0565b9250508190555082600960003373ffffffffffffffffffffffffffffffffffffffff1673ffffffffffffffffffffffffffffffffffffffff168152602001908152602001600020600082825461160b9190611abf565b925050819055505050919050565b600081836116279190611b46565b905092915050565b6000818361163d9190611b15565b905092915050565b600081836116539190611abf565b905092915050565b600081836116699190611ba0565b905092915050565b60008135905061168081611cbc565b92915050565b60008135905061169581611cd3565b92915050565b6000602082840312156116ad57600080fd5b60006116bb84828501611671565b91505092915050565b6000602082840312156116d657600080fd5b60006116e484828501611686565b91505092915050565b6000806040838503121561170057600080fd5b600061170e85828601611686565b925050602061171f85828601611686565b9150509250929050565b61173281611c10565b82525050565b6000611745600e83611aae565b91507f5a65726f204c69717569646974790000000000000000000000000000000000006000830152602082019050919050565b6000611785601983611aae565b91507f496e73756666696369656e7420706f6f6c2062616c616e6365000000000000006000830152602082019050919050565b60006117c5603183611aae565b91507f41737365742076616c7565206c657373207468616e207468726573686f6c642060008301527f666f7220636f6e747269627574696f6e210000000000000000000000000000006020830152604082019050919050565b600061182b603f83611aae565b91507f456e7465726564204c5020546f6b656e2073686f756c64206265206c6573732060008301527f7468616e20746f74616c204c5020546f6b656e206f662070726f7669646572006020830152604082019050919050565b6000611891601383611aae565b91507f496e73756666696369656e7420616d6f756e74000000000000000000000000006000830152602082019050919050565b60006118d1601683611aae565b91507f416d6f756e742063616e6e6f74206265207a65726f21000000000000000000006000830152602082019050919050565b61190d81611c06565b82525050565b60006020820190506119286000830184611729565b92915050565b6000602082019050818103600083015261194781611738565b9050919050565b6000602082019050818103600083015261196781611778565b9050919050565b60006020820190508181036000830152611987816117b8565b9050919050565b600060208201905081810360008301526119a78161181e565b9050919050565b600060208201905081810360008301526119c781611884565b9050919050565b600060208201905081810360008301526119e7816118c4565b9050919050565b6000602082019050611a036000830184611904565b92915050565b6000604082019050611a1e6000830185611904565b611a2b6020830184611904565b9392505050565b6000606082019050611a476000830186611904565b611a546020830185611904565b611a616040830184611904565b949350505050565b6000608082019050611a7e6000830187611904565b611a8b6020830186611904565b611a986040830185611904565b611aa56060830184611904565b95945050505050565b600082825260208201905092915050565b6000611aca82611c06565b9150611ad583611c06565b9250827fffffffffffffffffffffffffffffffffffffffffffffffffffffffffffffffff03821115611b0a57611b09611c5e565b5b828201905092915050565b6000611b2082611c06565b9150611b2b83611c06565b925082611b3b57611b3a611c8d565b5b828204905092915050565b6000611b5182611c06565b9150611b5c83611c06565b9250817fffffffffffffffffffffffffffffffffffffffffffffffffffffffffffffffff0483118215151615611b9557611b94611c5e565b5b828202905092915050565b6000611bab82611c06565b9150611bb683611c06565b925082821015611bc957611bc8611c5e565b5b828203905092915050565b6000611bdf82611be6565b9050919050565b600073ffffffffffffffffffffffffffffffffffffffff82169050919050565b6000819050919050565b6000611c1b82611c22565b9050919050565b6000611c2d82611be6565b9050919050565b6000611c3f82611c06565b91506000821415611c5357611c52611c5e565b5b600182039050919050565b7f4e487b7100000000000000000000000000000000000000000000000000000000600052601160045260246000fd5b7f4e487b7100000000000000000000000000000000000000000000000000000000600052601260045260246000fd5b611cc581611bd4565b8114611cd057600080fd5b50565b611cdc81611c06565b8114611ce757600080fd5b5056fea2646970667358221220e4f68d136dfefe80897dbe713db55332d7165ee008d18911ef75975ce367eafe64736f6c6343000800003360806040526103e860055534801561001657600080fd5b5061101b806100266000396000f3fe608060405234801561001057600080fd5b50600436106100b45760003560e01c806370a082311161007157806370a082311461019157806395d89b41146101c1578063a9059cbb146101df578063b09f12661461020f578063d28d88521461022d578063dd62ed3e1461024b576100b4565b806306fdde03146100b9578063095ea7b3146100d757806318160ddd1461010757806323b872dd14610125578063313ce5671461015557806332424aa314610173575b600080fd5b6100c161027b565b6040516100ce9190610d90565b60405180910390f35b6100f160048036038101906100ec9190610cd3565b61030d565b6040516100fe9190610d75565b60405180910390f35b61010f6103ff565b60405161011c9190610db2565b60405180910390f35b61013f600480360381019061013a9190610c84565b610409565b60405161014c9190610d75565b60405180910390f35b61015d610774565b60405161016a9190610dcd565b60405180910390f35b61017b61078b565b6040516101889190610dcd565b60405180910390f35b6101ab60048036038101906101a69190610c1f565b61079e565b6040516101b89190610db2565b60405180910390f35b6101c96107e7565b6040516101d69190610d90565b60405180910390f35b6101f960048036038101906101f49190610cd3565b610879565b6040516102069190610d75565b60405180910390f35b610217610a52565b6040516102249190610d90565b60405180910390f35b610235610ae0565b6040516102429190610d90565b60405180910390f35b61026560048036038101906102609190610c48565b610b6e565b6040516102729190610db2565b60405180910390f35b60606000805461028a90610f16565b80601f01602080910402602001604051908101604052809291908181526020018280546102b690610f16565b80156103035780601f106102d857610100808354040283529160200191610303565b820191906000526020600020905b8154815290600101906020018083116102e657829003601f168201915b5050505050905090565b600081600460003373ffffffffffffffffffffffffffffffffffffffff1673ffffffffffffffffffffffffffffffffffffffff16815260200190815260200160002060008573ffffffffffffffffffffffffffffffffffffffff1673ffffffffffffffffffffffffffffffffffffffff168152602001908152602001600020819055508273ffffffffffffffffffffffffffffffffffffffff163373ffffffffffffffffffffffffffffffffffffffff167f8c5be1e5ebec7d5bd14f71427d1e84f3dd0314c0f7b2291e5b200ac8c7c3b925846040516103ed9190610db2565b60405180910390a36001905092915050565b6000600554905090565b6000600360008573ffffffffffffffffffffffffffffffffffffffff1673ffffffffffffffffffffffffffffffffffffffff1681526020019081526020016000205482111561045757600080fd5b600460008573ffffffffffffffffffffffffffffffffffffffff1673ffffffffffffffffffffffffffffffffffffffff16815260200190815260200160002060003373ffffffffffffffffffffffffffffffffffffffff1673ffffffffffffffffffffffffffffffffffffffff168152602001908152602001600020548211156104e057600080fd5b81600360008673ffffffffffffffffffffffffffffffffffffffff1673ffffffffffffffffffffffffffffffffffffffff1681526020019081526020016000205461052b9190610e5a565b600360008673ffffffffffffffffffffffffffffffffffffffff1673ffffffffffffffffffffffffffffffffffffffff1681526020019081526020016000208190555081600460008673ffffffffffffffffffffffffffffffffffffffff1673ffffffffffffffffffffffffffffffffffffffff16815260200190815260200160002060003373ffffffffffffffffffffffffffffffffffffffff1673ffffffffffffffffffffffffffffffffffffffff168152602001908152602001600020546105f69190610e04565b600460008673ffffffffffffffffffffffffffffffffffffffff1673ffffffffffffffffffffffffffffffffffffffff16815260200190815260200160002060003373ffffffffffffffffffffffffffffffffffffffff1673ffffffffffffffffffffffffffffffffffffffff1681526020019081526020016000208190555081600360008573ffffffffffffffffffffffffffffffffffffffff1673ffffffffffffffffffffffffffffffffffffffff168152602001908152602001600020546106c19190610e04565b600360008573ffffffffffffffffffffffffffffffffffffffff1673ffffffffffffffffffffffffffffffffffffffff168152602001908152602001600020819055508273ffffffffffffffffffffffffffffffffffffffff168473ffffffffffffffffffffffffffffffffffffffff167fddf252ad1be2c89b69c2b068fc378daa952ba7f163c4a11628f55a4df523b3ef846040516107619190610db2565b60405180910390a3600190509392505050565b6000600260009054906101000a900460ff16905090565b600260009054906101000a900460ff1681565b6000600360008373ffffffffffffffffffffffffffffffffffffffff1673ffffffffffffffffffffffffffffffffffffffff168152602001908152602001600020549050919050565b6060600180546107f690610f16565b80601f016020809104026020016040519081016040528092919081815260200182805461082290610f16565b801561086f5780601f106108445761010080835404028352916020019161086f565b820191906000526020600020905b81548152906001019060200180831161085257829003601f168201915b5050505050905090565b6000600360003373ffffffffffffffffffffffffffffffffffffffff1673ffffffffffffffffffffffffffffffffffffffff168152602001908152602001600020548211156108c757600080fd5b81600360003373ffffffffffffffffffffffffffffffffffffffff1673ffffffffffffffffffffffffffffffffffffffff168152602001908152602001600020546109129190610e5a565b600360003373ffffffffffffffffffffffffffffffffffffffff1673ffffffffffffffffffffffffffffffffffffffff1681526020019081526020016000208190555081600360008573ffffffffffffffffffffffffffffffffffffffff1673ffffffffffffffffffffffffffffffffffffffff168152602001908152602001600020546109a09190610e04565b600360008573ffffffffffffffffffffffffffffffffffffffff1673ffffffffffffffffffffffffffffffffffffffff168152602001908152602001600020819055508273ffffffffffffffffffffffffffffffffffffffff163373ffffffffffffffffffffffffffffffffffffffff167fddf252ad1be2c89b69c2b068fc378daa952ba7f163c4a11628f55a4df523b3ef84604051610a409190610db2565b60405180910390a36001905092915050565b60018054610a5f90610f16565b80601f0160208091040260200160405190810160405280929190818152602001828054610a8b90610f16565b8015610ad85780601f10610aad57610100808354040283529160200191610ad8565b820191906000526020600020905b815481529060010190602001808311610abb57829003601f168201915b505050505081565b60008054610aed90610f16565b80601f0160208091040260200160405190810160405280929190818152602001828054610b1990610f16565b8015610b665780601f10610b3b57610100808354040283529160200191610b66565b820191906000526020600020905b815481529060010190602001808311610b4957829003601f168201915b505050505081565b6000600460008473ffffffffffffffffffffffffffffffffffffffff1673ffffffffffffffffffffffffffffffffffffffff16815260200190815260200160002060008373ffffffffffffffffffffffffffffffffffffffff1673ffffffffffffffffffffffffffffffffffffffff16815260200190815260200160002054905092915050565b600081359050610c0481610fb7565b92915050565b600081359050610c1981610fce565b92915050565b600060208284031215610c3157600080fd5b6000610c3f84828501610bf5565b91505092915050565b60008060408385031215610c5b57600080fd5b6000610c6985828601610bf5565b9250506020610c7a85828601610bf5565b9150509250929050565b600080600060608486031215610c9957600080fd5b6000610ca786828701610bf5565b9350506020610cb886828701610bf5565b9250506040610cc986828701610c0a565b9150509250925092565b60008060408385031215610ce657600080fd5b6000610cf485828601610bf5565b9250506020610d0585828601610c0a565b9150509250929050565b610d1881610ea0565b82525050565b6000610d2982610de8565b610d338185610df3565b9350610d43818560208601610ee3565b610d4c81610fa6565b840191505092915050565b610d6081610ecc565b82525050565b610d6f81610ed6565b82525050565b6000602082019050610d8a6000830184610d0f565b92915050565b60006020820190508181036000830152610daa8184610d1e565b905092915050565b6000602082019050610dc76000830184610d57565b92915050565b6000602082019050610de26000830184610d66565b92915050565b600081519050919050565b600082825260208201905092915050565b6000610e0f82610ecc565b9150610e1a83610ecc565b9250827fffffffffffffffffffffffffffffffffffffffffffffffffffffffffffffffff03821115610e4f57610e4e610f48565b5b828201905092915050565b6000610e6582610ecc565b9150610e7083610ecc565b925082821015610e8357610e82610f48565b5b828203905092915050565b6000610e9982610eac565b9050919050565b60008115159050919050565b600073ffffffffffffffffffffffffffffffffffffffff82169050919050565b6000819050919050565b600060ff82169050919050565b60005b83811015610f01578082015181840152602081019050610ee6565b83811115610f10576000848401525b50505050565b60006002820490506001821680610f2e57607f821691505b60208210811415610f4257610f41610f77565b5b50919050565b7f4e487b7100000000000000000000000000000000000000000000000000000000600052601160045260246000fd5b7f4e487b7100000000000000000000000000000000000000000000000000000000600052602260045260246000fd5b6000601f19601f8301169050919050565b610fc081610e8e565b8114610fcb57600080fd5b50565b610fd781610ecc565b8114610fe257600080fd5b5056fea26469706673582212205e3ab0c418d6e03f65c2dbaf623285401b1a50302644b3e50373c0f8ae44749c64736f6c63430008000033",
  "immutableReferences": {},
  "source": "//SPDX-License-Identifier: MIT\r\n\r\npragma solidity ^0.8.0;\r\nimport \"@openzeppelin/contracts/utils/math/SafeMath.sol\";\r\nimport \"./IERC20.sol\";\r\n\r\ncontract DragonSwap{\r\n    using SafeMath for uint256;\r\n\r\n    IERC20 public token1;\r\n    IERC20 public token2;\r\n    uint256 ETH_Token;     // ERC-20 Token\r\n    uint256 DRG_Token;     // ERC-20 Token\r\n    string name1;\r\n    string name2;\r\n    uint8 decimal;\r\n\r\n    struct LiquidityPool{\r\n        uint256 total_token_1;\r\n        uint256 total_token_2;\r\n        uint256 total_LPTokens;\r\n        uint256 K;  // constant from xyk model\r\n    }\r\n\r\n    mapping (address => uint) public LP_Tokens;  // store the LP token for each provider\r\n    mapping (address => uint) public token_1_balance;  // store token 1 balance of each user (LP provider / trader)\r\n    mapping (address => uint) public token_2_balance;  // store token 2 balance of each user (LP provider / trader)\r\n    LiquidityPool public liquidityPool;     // represent the pool\r\n\r\n    constructor(){\r\n        token1 = new ERC20Basic();\r\n        token2 = new ERC20Basic();\r\n        liquidityPool.total_token_1 = 100; // 10 Ether\r\n        liquidityPool.total_token_2 = 250; // 10 Ether\r\n        name1 = token1.name();\r\n        name2 = token2.name();\r\n        liquidityPool.K = token1.balanceOf(address(this)) * token2.balanceOf(address(this));    // 10 ** 36 - constant \r\n        token_1_balance[msg.sender] = 10000;\r\n        token_2_balance[msg.sender] = 10000;\r\n        liquidityPool.total_LPTokens=liquidityPool.total_token_1 +liquidityPool.total_token_2;\r\n         LP_Tokens[msg.sender]=12;\r\n    }\r\n\r\n    // Ensures that the _qty is non-zero and the user has enough balance\r\n    modifier validAmountCheck(mapping(address => uint256) storage _balance, uint256 _qty) {\r\n        require(_qty > 0, \"Amount cannot be zero!\"); //entered amount cannot be 0\r\n        require(_qty <= _balance[msg.sender], \"Insufficient amount\"); //entered amount must less than or equal to sender balance\r\n        _;\r\n    }\r\n\r\n    // Ensure the pool have token 1 and token 2 balances\r\n    modifier activePool() {\r\n        require(liquidityPool.K > 0, \"Zero Liquidity\");\r\n        _;\r\n    }\r\n\r\n    function getProviderLPToken() external view returns(uint256){\r\n        return LP_Tokens[msg.sender];\r\n    }\r\n\r\n    // Returns the total amount of tokens locked in the pool and the total shares issued corresponding to it\r\n    function getPoolDetails() external view returns(uint256, uint256, uint256) {\r\n        return (liquidityPool.total_token_1, liquidityPool.total_token_2, liquidityPool.total_LPTokens);\r\n    }\r\n\r\n    function LPToken(uint256 _amountToken1, uint256 _amountToken2) external pure returns(uint256 amountLPToken) {\r\n        amountLPToken = _amountToken1 + _amountToken2;\r\n        return amountLPToken;\r\n    }\r\n\r\n    // Returns the balance of the user\r\n    function checkMyBalances() external view returns(uint256 amountToken1, uint256 amountToken2, uint256 LP_Token) {\r\n        amountToken1 = token_1_balance[msg.sender];\r\n        amountToken2 = token_2_balance[msg.sender];\r\n        LP_Token = LP_Tokens[msg.sender];\r\n    }\r\n\r\n    // Returns amount of Token1 required when providing liquidity with _amountToken2 quantity of Token2\r\n    function getEquivalentToken1Estimate(uint256 _amountToken2) public view activePool returns(uint256 reqToken1) {\r\n        reqToken1 = liquidityPool.total_token_1.mul(_amountToken2).div(liquidityPool.total_token_2);\r\n    }\r\n\r\n    // Returns amount of Token2 required when providing liquidity with _amountToken1 quantity of Token1\r\n    function getEquivalentToken2Estimate(uint256 _amountToken1) public view activePool returns(uint256 reqToken2) {\r\n        reqToken2 = liquidityPool.total_token_2.mul(_amountToken1).div(liquidityPool.total_token_1);\r\n    }\r\n\r\n    /* Provide more token 1 and token 2 into the pool - Expands the pool\r\n    ** 1. Calculate LP token for LP provider such that token 1 and token 2 give the equivalent value \r\n    ** 2. Reduce amount token1 and token2 from user balances\r\n    ** 3. Increase the total amount token 1 and token 2\r\n    ** 4. Calculate new constant\r\n    ** 5. Increase total amount of LP tokens in pool\r\n    ** 6. Assign the LP token calculated into user's LP token balances\r\n    */ \r\n    function provideLiquidity(uint256 _amountToken1, uint256 _amountToken2) validAmountCheck(token_1_balance, _amountToken1) validAmountCheck(token_2_balance, _amountToken2) public returns(uint256 LP_token){\r\n\r\n        LP_token = _amountToken1 + _amountToken2;\r\n\r\n        require(LP_token > 0, \"Asset value less than threshold for contribution!\");\r\n        token_1_balance[msg.sender] -= _amountToken1;\r\n        token_2_balance[msg.sender] -= _amountToken2;\r\n\r\n        liquidityPool.total_token_1 += _amountToken1;\r\n        liquidityPool.total_token_2 += _amountToken2;\r\n\r\n        liquidityPool.K = liquidityPool.total_token_1.mul(liquidityPool.total_token_2);\r\n\r\n        liquidityPool.total_LPTokens += LP_token;\r\n        LP_Tokens[msg.sender] += LP_token;\r\n    }\r\n\r\n    // Returns the estimate of Token1 & Token2 that will be released on burning given _LPToken\r\n     function getWithdrawTokenEstimate(uint256 _LPToken) public view returns(uint256 amountToken1, uint256 amountToken2) {\r\n        require(_LPToken <=LP_Tokens[msg.sender] , \"Entered LP Token should be less than total LP Token of provider\");\r\n        amountToken1 = _LPToken.mul(liquidityPool.total_token_1).div(liquidityPool.total_LPTokens); //used entered token, provider may not withdraw all the coin\r\n        amountToken2 = _LPToken.mul(liquidityPool.total_token_2).div(liquidityPool.total_LPTokens);\r\n    }\r\n\r\n\r\n    // Removes liquidity from the pool and releases corresponding Token1 & Token2 to the withdrawer\r\n    // _LPToken :entered by provider\r\n    // LP_Tokens:LP Token owned by provider\r\n    function withdraw(uint256 _LPToken) external activePool validAmountCheck(LP_Tokens, _LPToken) returns(uint256 amountToken1, uint256 amountToken2) {\r\n        (amountToken1, amountToken2) = getWithdrawTokenEstimate(_LPToken);\r\n        \r\n        LP_Tokens[msg.sender] -= _LPToken;\r\n        liquidityPool.total_LPTokens -= _LPToken;\r\n\r\n        liquidityPool.total_token_1 -= amountToken1;\r\n        liquidityPool.total_token_2 -= amountToken2;\r\n        liquidityPool.K= liquidityPool.total_token_1.mul(liquidityPool.total_token_2);\r\n\r\n        token_1_balance[msg.sender] += amountToken1;\r\n        token_2_balance[msg.sender] += amountToken2;\r\n    }\r\n\r\n    \r\n    // Returns the amount of Token2 that the user will get when swapping a given amount of Token1 for Token2\r\n    function getSwapToken1Estimate(uint256 _amountToken1) public view activePool returns(uint256 amountToken2) {\r\n        uint256 token1After = liquidityPool.total_token_1.add(_amountToken1);\r\n        uint256 token2After = liquidityPool.K.div(token1After);\r\n        amountToken2 = liquidityPool.total_token_2.sub(token2After);\r\n\r\n        // To ensure that Token2's pool is not completely depleted leading to inf:0 ratio\r\n        if(amountToken2 == liquidityPool.total_token_2) amountToken2--;\r\n    }\r\n    \r\n    // Returns the amount of Token1 that the user should swap to get _amountToken2 in return\r\n    function getSwapToken1EstimateGivenToken2(uint256 _amountToken2) public view activePool returns(uint256 amountToken1) {\r\n        require(_amountToken2 < liquidityPool.total_token_2, \"Insufficient pool balance\");\r\n        uint256 token2After = liquidityPool.total_token_2.sub(_amountToken2);\r\n        uint256 token1After = liquidityPool.K.div(token2After);\r\n        amountToken1 = token1After.sub(liquidityPool.total_token_1);\r\n    }\r\n\r\n    // Swaps given amount of Token1 to Token2 using algorithmic price determination\r\n    function swapToken1(uint256 _amountToken1) external activePool validAmountCheck(token_1_balance, _amountToken1) returns(uint256 amountToken2) {\r\n        amountToken2 = getSwapToken1Estimate(_amountToken1);\r\n\r\n        token_1_balance[msg.sender] -= _amountToken1;\r\n        liquidityPool.total_token_1 += _amountToken1;\r\n        liquidityPool.total_token_2 -= amountToken2;\r\n        token_2_balance[msg.sender] += amountToken2;\r\n    }\r\n\r\n    // Returns the amount of Token2 that the user will get when swapping a given amount of Token1 for Token2\r\n    function getSwapToken2Estimate(uint256 _amountToken2) public view activePool returns(uint256 amountToken1) {\r\n        uint256 token2After = liquidityPool.total_token_2.add(_amountToken2);\r\n        uint256 token1After = liquidityPool.K.div(token2After);\r\n        amountToken1 = liquidityPool.total_token_1.sub(token1After);\r\n\r\n        // To ensure that Token1's pool is not completely depleted leading to inf:0 ratio\r\n        if(amountToken1 == liquidityPool.total_token_1) amountToken1--;\r\n    }\r\n    \r\n    // Returns the amount of Token2 that the user should swap to get _amountToken1 in return\r\n    function getSwapToken2EstimateGivenToken1(uint256 _amountToken1) public view activePool returns(uint256 amountToken2) {\r\n        require(_amountToken1 < liquidityPool.total_token_1, \"Insufficient pool balance\");\r\n        uint256 token1After = liquidityPool.total_token_1.sub(_amountToken1);\r\n        uint256 token2After = liquidityPool.K.div(token1After);\r\n        amountToken2 = token2After.sub(liquidityPool.total_token_2);\r\n    }\r\n\r\n    // Swaps given amount of Token2 to Token1 using algorithmic price determination\r\n    function swapToken2(uint256 _amountToken2) external activePool validAmountCheck(token_2_balance, _amountToken2) returns(uint256 amountToken1) {\r\n        amountToken1 = getSwapToken2Estimate(_amountToken2);\r\n\r\n        token_2_balance[msg.sender] -= _amountToken2;\r\n        liquidityPool.total_token_2 += _amountToken2;\r\n        liquidityPool.total_token_1 -= amountToken1;\r\n        token_1_balance[msg.sender] += amountToken1;\r\n    }\r\n}\r\n",
  "sourcePath": "C:\\Users\\zixua\\Documents\\rabbitswap\\contracts\\DragonSwap.sol",
  "compiler": {
    "name": "solc",
    "version": "0.8.0+commit.c7dfd78e.Emscripten.clang"
  },
  "schemaVersion": "3.4.4",
  "updatedAt": "2022-04-11T08:51:58.586Z",
  "networkType": "ethereum",
  "devdoc": {
    "kind": "dev",
    "methods": {},
    "version": 1
  },
  "userdoc": {
    "kind": "user",
    "methods": {},
    "version": 1
  }
}