{
  "contractName": "DragonSwap",
  "abi": [
    {
      "inputs": [],
      "stateMutability": "nonpayable",
      "type": "constructor"
    },
    {
      "inputs": [
        {
          "internalType": "address",
          "name": "",
          "type": "address"
        }
      ],
      "name": "LP_Tokens",
      "outputs": [
        {
          "internalType": "uint256",
          "name": "",
          "type": "uint256"
        }
      ],
      "stateMutability": "view",
      "type": "function",
      "constant": true
    },
    {
      "inputs": [],
      "name": "liquidityPool",
      "outputs": [
        {
          "internalType": "uint256",
          "name": "total_token_1",
          "type": "uint256"
        },
        {
          "internalType": "uint256",
          "name": "total_token_2",
          "type": "uint256"
        },
        {
          "internalType": "uint256",
          "name": "total_LPTokens",
          "type": "uint256"
        },
        {
          "internalType": "uint256",
          "name": "K",
          "type": "uint256"
        }
      ],
      "stateMutability": "view",
      "type": "function",
      "constant": true
    },
    {
      "inputs": [],
      "name": "token1",
      "outputs": [
        {
          "internalType": "contract IERC20",
          "name": "",
          "type": "address"
        }
      ],
      "stateMutability": "view",
      "type": "function",
      "constant": true
    },
    {
      "inputs": [],
      "name": "token2",
      "outputs": [
        {
          "internalType": "contract IERC20",
          "name": "",
          "type": "address"
        }
      ],
      "stateMutability": "view",
      "type": "function",
      "constant": true
    },
    {
      "inputs": [
        {
          "internalType": "address",
          "name": "",
          "type": "address"
        }
      ],
      "name": "token_1_balance",
      "outputs": [
        {
          "internalType": "uint256",
          "name": "",
          "type": "uint256"
        }
      ],
      "stateMutability": "view",
      "type": "function",
      "constant": true
    },
    {
      "inputs": [
        {
          "internalType": "address",
          "name": "",
          "type": "address"
        }
      ],
      "name": "token_2_balance",
      "outputs": [
        {
          "internalType": "uint256",
          "name": "",
          "type": "uint256"
        }
      ],
      "stateMutability": "view",
      "type": "function",
      "constant": true
    },
    {
      "inputs": [],
      "name": "getPoolDetails",
      "outputs": [
        {
          "internalType": "uint256",
          "name": "",
          "type": "uint256"
        },
        {
          "internalType": "uint256",
          "name": "",
          "type": "uint256"
        },
        {
          "internalType": "uint256",
          "name": "",
          "type": "uint256"
        }
      ],
      "stateMutability": "view",
      "type": "function",
      "constant": true
    },
    {
      "inputs": [
        {
          "internalType": "uint256",
          "name": "_amountToken1",
          "type": "uint256"
        },
        {
          "internalType": "uint256",
          "name": "_amountToken2",
          "type": "uint256"
        }
      ],
      "name": "LPToken",
      "outputs": [
        {
          "internalType": "uint256",
          "name": "amountLPToken",
          "type": "uint256"
        }
      ],
      "stateMutability": "pure",
      "type": "function",
      "constant": true
    },
    {
      "inputs": [],
      "name": "checkMyBalances",
      "outputs": [
        {
          "internalType": "uint256",
          "name": "amountToken1",
          "type": "uint256"
        },
        {
          "internalType": "uint256",
          "name": "amountToken2",
          "type": "uint256"
        },
        {
          "internalType": "uint256",
          "name": "LP_Token",
          "type": "uint256"
        }
      ],
      "stateMutability": "view",
      "type": "function",
      "constant": true
    },
    {
      "inputs": [
        {
          "internalType": "uint256",
          "name": "_amountToken2",
          "type": "uint256"
        }
      ],
      "name": "getEquivalentToken1Estimate",
      "outputs": [
        {
          "internalType": "uint256",
          "name": "reqToken1",
          "type": "uint256"
        }
      ],
      "stateMutability": "view",
      "type": "function",
      "constant": true
    },
    {
      "inputs": [
        {
          "internalType": "uint256",
          "name": "_amountToken1",
          "type": "uint256"
        }
      ],
      "name": "getEquivalentToken2Estimate",
      "outputs": [
        {
          "internalType": "uint256",
          "name": "reqToken2",
          "type": "uint256"
        }
      ],
      "stateMutability": "view",
      "type": "function",
      "constant": true
    },
    {
      "inputs": [
        {
          "internalType": "uint256",
          "name": "_amountToken1",
          "type": "uint256"
        },
        {
          "internalType": "uint256",
          "name": "_amountToken2",
          "type": "uint256"
        }
      ],
      "name": "provideLiquidity",
      "outputs": [
        {
          "internalType": "uint256",
          "name": "LP_token",
          "type": "uint256"
        }
      ],
      "stateMutability": "nonpayable",
      "type": "function"
    },
    {
      "inputs": [
        {
          "internalType": "uint256",
          "name": "_LPToken",
          "type": "uint256"
        }
      ],
      "name": "getWithdrawTokenEstimate",
      "outputs": [
        {
          "internalType": "uint256",
          "name": "amountToken1",
          "type": "uint256"
        },
        {
          "internalType": "uint256",
          "name": "amountToken2",
          "type": "uint256"
        }
      ],
      "stateMutability": "view",
      "type": "function",
      "constant": true
    },
    {
      "inputs": [
        {
          "internalType": "uint256",
          "name": "_LPToken",
          "type": "uint256"
        }
      ],
      "name": "withdraw",
      "outputs": [
        {
          "internalType": "uint256",
          "name": "amountToken1",
          "type": "uint256"
        },
        {
          "internalType": "uint256",
          "name": "amountToken2",
          "type": "uint256"
        }
      ],
      "stateMutability": "nonpayable",
      "type": "function"
    },
    {
      "inputs": [
        {
          "internalType": "uint256",
          "name": "_amountToken1",
          "type": "uint256"
        }
      ],
      "name": "getSwapToken1Estimate",
      "outputs": [
        {
          "internalType": "uint256",
          "name": "amountToken2",
          "type": "uint256"
        }
      ],
      "stateMutability": "view",
      "type": "function",
      "constant": true
    },
    {
      "inputs": [
        {
          "internalType": "uint256",
          "name": "_amountToken2",
          "type": "uint256"
        }
      ],
      "name": "getSwapToken1EstimateGivenToken2",
      "outputs": [
        {
          "internalType": "uint256",
          "name": "amountToken1",
          "type": "uint256"
        }
      ],
      "stateMutability": "view",
      "type": "function",
      "constant": true
    },
    {
      "inputs": [
        {
          "internalType": "uint256",
          "name": "_amountToken1",
          "type": "uint256"
        }
      ],
      "name": "swapToken1",
      "outputs": [
        {
          "internalType": "uint256",
          "name": "amountToken2",
          "type": "uint256"
        }
      ],
      "stateMutability": "nonpayable",
      "type": "function"
    },
    {
      "inputs": [
        {
          "internalType": "uint256",
          "name": "_amountToken2",
          "type": "uint256"
        }
      ],
      "name": "getSwapToken2Estimate",
      "outputs": [
        {
          "internalType": "uint256",
          "name": "amountToken1",
          "type": "uint256"
        }
      ],
      "stateMutability": "view",
      "type": "function",
      "constant": true
    },
    {
      "inputs": [
        {
          "internalType": "uint256",
          "name": "_amountToken1",
          "type": "uint256"
        }
      ],
      "name": "getSwapToken2EstimateGivenToken1",
      "outputs": [
        {
          "internalType": "uint256",
          "name": "amountToken2",
          "type": "uint256"
        }
      ],
      "stateMutability": "view",
      "type": "function",
      "constant": true
    },
    {
      "inputs": [
        {
          "internalType": "uint256",
          "name": "_amountToken2",
          "type": "uint256"
        }
      ],
      "name": "swapToken2",
      "outputs": [
        {
          "internalType": "uint256",
          "name": "amountToken1",
          "type": "uint256"
        }
      ],
      "stateMutability": "nonpayable",
      "type": "function"
    }
  ],
  "bytecode": "0x60806040523480156200001157600080fd5b50604051620000209062000486565b604051809103906000f0801580156200003d573d6000803e3d6000fd5b506000806101000a81548173ffffffffffffffffffffffffffffffffffffffff021916908373ffffffffffffffffffffffffffffffffffffffff1602179055506040516200008b9062000486565b604051809103906000f080158015620000a8573d6000803e3d6000fd5b50600160006101000a81548173ffffffffffffffffffffffffffffffffffffffff021916908373ffffffffffffffffffffffffffffffffffffffff1602179055506064600a6000018190555060fa600a6001018190555060008054906101000a900473ffffffffffffffffffffffffffffffffffffffff1673ffffffffffffffffffffffffffffffffffffffff166306fdde036040518163ffffffff1660e01b815260040160006040518083038186803b1580156200016657600080fd5b505afa1580156200017b573d6000803e3d6000fd5b505050506040513d6000823e3d601f19601f82011682018060405250810190620001a69190620005cd565b60049080519060200190620001bd92919062000494565b50600160009054906101000a900473ffffffffffffffffffffffffffffffffffffffff1673ffffffffffffffffffffffffffffffffffffffff166306fdde036040518163ffffffff1660e01b815260040160006040518083038186803b1580156200022757600080fd5b505afa1580156200023c573d6000803e3d6000fd5b505050506040513d6000823e3d601f19601f82011682018060405250810190620002679190620005cd565b600590805190602001906200027e92919062000494565b50600160009054906101000a900473ffffffffffffffffffffffffffffffffffffffff1673ffffffffffffffffffffffffffffffffffffffff166370a08231306040518263ffffffff1660e01b8152600401620002dc91906200064f565b60206040518083038186803b158015620002f557600080fd5b505afa1580156200030a573d6000803e3d6000fd5b505050506040513d601f19601f8201168201806040525081019062000330919062000612565b60008054906101000a900473ffffffffffffffffffffffffffffffffffffffff1673ffffffffffffffffffffffffffffffffffffffff166370a08231306040518263ffffffff1660e01b81526004016200038b91906200064f565b60206040518083038186803b158015620003a457600080fd5b505afa158015620003b9573d6000803e3d6000fd5b505050506040513d601f19601f82011682018060405250810190620003df919062000612565b620003eb9190620006d3565b600a60030181905550612710600860003373ffffffffffffffffffffffffffffffffffffffff1673ffffffffffffffffffffffffffffffffffffffff16815260200190815260200160002081905550612710600960003373ffffffffffffffffffffffffffffffffffffffff1673ffffffffffffffffffffffffffffffffffffffff1681526020019081526020016000208190555062000885565b611041806200258d83390190565b828054620004a290620007a8565b90600052602060002090601f016020900481019282620004c6576000855562000512565b82601f10620004e157805160ff191683800117855562000512565b8280016001018555821562000512579182015b8281111562000511578251825591602001919060010190620004f4565b5b50905062000521919062000525565b5090565b5b808211156200054057600081600090555060010162000526565b5090565b60006200055b6200055584620006a0565b6200066c565b9050828152602081018484840111156200057457600080fd5b6200058184828562000772565b509392505050565b600082601f8301126200059b57600080fd5b8151620005ad84826020860162000544565b91505092915050565b600081519050620005c7816200086b565b92915050565b600060208284031215620005e057600080fd5b600082015167ffffffffffffffff811115620005fb57600080fd5b620006098482850162000589565b91505092915050565b6000602082840312156200062557600080fd5b60006200063584828501620005b6565b91505092915050565b620006498162000734565b82525050565b60006020820190506200066660008301846200063e565b92915050565b6000604051905081810181811067ffffffffffffffff821117156200069657620006956200083c565b5b8060405250919050565b600067ffffffffffffffff821115620006be57620006bd6200083c565b5b601f19601f8301169050602081019050919050565b6000620006e08262000768565b9150620006ed8362000768565b9250817fffffffffffffffffffffffffffffffffffffffffffffffffffffffffffffffff0483118215151615620007295762000728620007de565b5b828202905092915050565b6000620007418262000748565b9050919050565b600073ffffffffffffffffffffffffffffffffffffffff82169050919050565b6000819050919050565b60005b838110156200079257808201518184015260208101905062000775565b83811115620007a2576000848401525b50505050565b60006002820490506001821680620007c157607f821691505b60208210811415620007d857620007d76200080d565b5b50919050565b7f4e487b7100000000000000000000000000000000000000000000000000000000600052601160045260246000fd5b7f4e487b7100000000000000000000000000000000000000000000000000000000600052602260045260246000fd5b7f4e487b7100000000000000000000000000000000000000000000000000000000600052604160045260246000fd5b620008768162000768565b81146200088257600080fd5b50565b611cf880620008956000396000f3fe608060405234801561001057600080fd5b506004361061012c5760003560e01c80637f5e30d8116100ad578063d21220a711610071578063d21220a7146103c2578063d212b440146103e0578063d3817b4a14610410578063ee1d59c514610440578063f4cb34d4146104705761012c565b80637f5e30d8146102e1578063980d69d314610312578063a288ca8614610342578063aca34c1114610372578063c02a7e40146103925761012c565b8063450177c6116100f4578063450177c614610210578063513b6b1814610240578063665a11ca146102605780637565a92b146102815780637a16af7f146102b15761012c565b8063078b7fdc1461013157806325be124e146101615780632e1a7d4d1461017f5780632ef66444146101b0578063319bb38f146101e0575b600080fd5b61014b6004803603810190610146919061169c565b6104a0565b60405161015891906119c6565b60405180910390f35b61016961051f565b60405161017691906118eb565b60405180910390f35b6101996004803603810190610194919061169c565b610545565b6040516101a79291906119e1565b60405180910390f35b6101ca60048036038101906101c59190611673565b6107eb565b6040516101d791906119c6565b60405180910390f35b6101fa60048036038101906101f5919061169c565b610803565b60405161020791906119c6565b60405180910390f35b61022a6004803603810190610225919061169c565b610882565b60405161023791906119c6565b60405180910390f35b610248610940565b60405161025793929190611a0a565b60405180910390f35b610268610a10565b6040516102789493929190611a41565b60405180910390f35b61029b6004803603810190610296919061169c565b610a2e565b6040516102a891906119c6565b60405180910390f35b6102cb60048036038101906102c691906116c5565b610b17565b6040516102d891906119c6565b60405180910390f35b6102fb60048036038101906102f6919061169c565b610e7e565b6040516103099291906119e1565b60405180910390f35b61032c6004803603810190610327919061169c565b610fb2565b60405161033991906119c6565b60405180910390f35b61035c60048036038101906103579190611673565b6111b8565b60405161036991906119c6565b60405180910390f35b61037a6111d0565b60405161038993929190611a0a565b60405180910390f35b6103ac60048036038101906103a79190611673565b6111f2565b6040516103b991906119c6565b60405180910390f35b6103ca61120a565b6040516103d791906118eb565b60405180910390f35b6103fa60048036038101906103f5919061169c565b61122e565b60405161040791906119c6565b60405180910390f35b61042a6004803603810190610425919061169c565b611317565b60405161043791906119c6565b60405180910390f35b61045a600480360381019061045591906116c5565b6113d5565b60405161046791906119c6565b60405180910390f35b61048a6004803603810190610485919061169c565b6113eb565b60405161049791906119c6565b60405180910390f35b600080600a60030154116104e9576040517f08c379a00000000000000000000000000000000000000000000000000000000081526004016104e090611906565b60405180910390fd5b610518600a6001015461050a84600a600001546115f190919063ffffffff16565b61160790919063ffffffff16565b9050919050565b600160009054906101000a900473ffffffffffffffffffffffffffffffffffffffff1681565b6000806000600a6003015411610590576040517f08c379a000000000000000000000000000000000000000000000000000000000815260040161058790611906565b60405180910390fd5b600783600081116105d6576040517f08c379a00000000000000000000000000000000000000000000000000000000081526004016105cd906119a6565b60405180910390fd5b8160003373ffffffffffffffffffffffffffffffffffffffff1673ffffffffffffffffffffffffffffffffffffffff16815260200190815260200160002054811115610657576040517f08c379a000000000000000000000000000000000000000000000000000000000815260040161064e90611986565b60405180910390fd5b61066085610e7e565b809450819550505084600760003373ffffffffffffffffffffffffffffffffffffffff1673ffffffffffffffffffffffffffffffffffffffff16815260200190815260200160002060008282546106b79190611b78565b9250508190555084600a60020160008282546106d39190611b78565b9250508190555083600a60000160008282546106ef9190611b78565b9250508190555082600a600101600082825461070b9190611b78565b9250508190555061072f600a60010154600a600001546115f190919063ffffffff16565b600a6003018190555083600860003373ffffffffffffffffffffffffffffffffffffffff1673ffffffffffffffffffffffffffffffffffffffff16815260200190815260200160002060008282546107879190611a97565b9250508190555082600960003373ffffffffffffffffffffffffffffffffffffffff1673ffffffffffffffffffffffffffffffffffffffff16815260200190815260200160002060008282546107dd9190611a97565b925050819055505050915091565b60086020528060005260406000206000915090505481565b600080600a600301541161084c576040517f08c379a000000000000000000000000000000000000000000000000000000000815260040161084390611906565b60405180910390fd5b61087b600a6000015461086d84600a600101546115f190919063ffffffff16565b61160790919063ffffffff16565b9050919050565b600080600a60030154116108cb576040517f08c379a00000000000000000000000000000000000000000000000000000000081526004016108c290611906565b60405180910390fd5b60006108e583600a6000015461161d90919063ffffffff16565b9050600061090182600a6003015461160790919063ffffffff16565b905061091b81600a6001015461163390919063ffffffff16565b9250600a6001015483141561093957828061093590611c0c565b9350505b5050919050565b6000806000600860003373ffffffffffffffffffffffffffffffffffffffff1673ffffffffffffffffffffffffffffffffffffffff168152602001908152602001600020549250600960003373ffffffffffffffffffffffffffffffffffffffff1673ffffffffffffffffffffffffffffffffffffffff168152602001908152602001600020549150600760003373ffffffffffffffffffffffffffffffffffffffff1673ffffffffffffffffffffffffffffffffffffffff168152602001908152602001600020549050909192565b600a8060000154908060010154908060020154908060030154905084565b600080600a6003015411610a77576040517f08c379a0000000000000000000000000000000000000000000000000000000008152600401610a6e90611906565b60405180910390fd5b600a600001548210610abe576040517f08c379a0000000000000000000000000000000000000000000000000000000008152600401610ab590611926565b60405180910390fd5b6000610ad883600a6000015461163390919063ffffffff16565b90506000610af482600a6003015461160790919063ffffffff16565b9050610b0e600a600101548261163390919063ffffffff16565b92505050919050565b600060088360008111610b5f576040517f08c379a0000000000000000000000000000000000000000000000000000000008152600401610b56906119a6565b60405180910390fd5b8160003373ffffffffffffffffffffffffffffffffffffffff1673ffffffffffffffffffffffffffffffffffffffff16815260200190815260200160002054811115610be0576040517f08c379a0000000000000000000000000000000000000000000000000000000008152600401610bd790611986565b60405180910390fd5b60098460008111610c26576040517f08c379a0000000000000000000000000000000000000000000000000000000008152600401610c1d906119a6565b60405180910390fd5b8160003373ffffffffffffffffffffffffffffffffffffffff1673ffffffffffffffffffffffffffffffffffffffff16815260200190815260200160002054811115610ca7576040517f08c379a0000000000000000000000000000000000000000000000000000000008152600401610c9e90611986565b60405180910390fd5b8587610cb39190611a97565b945060008511610cf8576040517f08c379a0000000000000000000000000000000000000000000000000000000008152600401610cef90611946565b60405180910390fd5b86600860003373ffffffffffffffffffffffffffffffffffffffff1673ffffffffffffffffffffffffffffffffffffffff1681526020019081526020016000206000828254610d479190611b78565b9250508190555085600960003373ffffffffffffffffffffffffffffffffffffffff1673ffffffffffffffffffffffffffffffffffffffff1681526020019081526020016000206000828254610d9d9190611b78565b9250508190555086600a6000016000828254610db99190611a97565b9250508190555085600a6001016000828254610dd59190611a97565b92505081905550610df9600a60010154600a600001546115f190919063ffffffff16565b600a6003018190555084600a6002016000828254610e179190611a97565b9250508190555084600760003373ffffffffffffffffffffffffffffffffffffffff1673ffffffffffffffffffffffffffffffffffffffff1681526020019081526020016000206000828254610e6d9190611a97565b925050819055505050505092915050565b6000806000600a6003015411610ec9576040517f08c379a0000000000000000000000000000000000000000000000000000000008152600401610ec090611906565b60405180910390fd5b600760003373ffffffffffffffffffffffffffffffffffffffff1673ffffffffffffffffffffffffffffffffffffffff16815260200190815260200160002054831115610f4b576040517f08c379a0000000000000000000000000000000000000000000000000000000008152600401610f4290611966565b60405180910390fd5b610f7a600a60020154610f6c600a60000154866115f190919063ffffffff16565b61160790919063ffffffff16565b9150610fab600a60020154610f9d600a60010154866115f190919063ffffffff16565b61160790919063ffffffff16565b9050915091565b600080600a6003015411610ffb576040517f08c379a0000000000000000000000000000000000000000000000000000000008152600401610ff290611906565b60405180910390fd5b60098260008111611041576040517f08c379a0000000000000000000000000000000000000000000000000000000008152600401611038906119a6565b60405180910390fd5b8160003373ffffffffffffffffffffffffffffffffffffffff1673ffffffffffffffffffffffffffffffffffffffff168152602001908152602001600020548111156110c2576040517f08c379a00000000000000000000000000000000000000000000000000000000081526004016110b990611986565b60405180910390fd5b6110cb84611317565b925083600960003373ffffffffffffffffffffffffffffffffffffffff1673ffffffffffffffffffffffffffffffffffffffff168152602001908152602001600020600082825461111c9190611b78565b9250508190555083600a60010160008282546111389190611a97565b9250508190555082600a60000160008282546111549190611b78565b9250508190555082600860003373ffffffffffffffffffffffffffffffffffffffff1673ffffffffffffffffffffffffffffffffffffffff16815260200190815260200160002060008282546111aa9190611a97565b925050819055505050919050565b60076020528060005260406000206000915090505481565b6000806000600a60000154600a60010154600a60020154925092509250909192565b60096020528060005260406000206000915090505481565b60008054906101000a900473ffffffffffffffffffffffffffffffffffffffff1681565b600080600a6003015411611277576040517f08c379a000000000000000000000000000000000000000000000000000000000815260040161126e90611906565b60405180910390fd5b600a6001015482106112be576040517f08c379a00000000000000000000000000000000000000000000000000000000081526004016112b590611926565b60405180910390fd5b60006112d883600a6001015461163390919063ffffffff16565b905060006112f482600a6003015461160790919063ffffffff16565b905061130e600a600001548261163390919063ffffffff16565b92505050919050565b600080600a6003015411611360576040517f08c379a000000000000000000000000000000000000000000000000000000000815260040161135790611906565b60405180910390fd5b600061137a83600a6001015461161d90919063ffffffff16565b9050600061139682600a6003015461160790919063ffffffff16565b90506113b081600a6000015461163390919063ffffffff16565b9250600a600001548314156113ce5782806113ca90611c0c565b9350505b5050919050565b600081836113e39190611a97565b905092915050565b600080600a6003015411611434576040517f08c379a000000000000000000000000000000000000000000000000000000000815260040161142b90611906565b60405180910390fd5b6008826000811161147a576040517f08c379a0000000000000000000000000000000000000000000000000000000008152600401611471906119a6565b60405180910390fd5b8160003373ffffffffffffffffffffffffffffffffffffffff1673ffffffffffffffffffffffffffffffffffffffff168152602001908152602001600020548111156114fb576040517f08c379a00000000000000000000000000000000000000000000000000000000081526004016114f290611986565b60405180910390fd5b61150484610882565b925083600860003373ffffffffffffffffffffffffffffffffffffffff1673ffffffffffffffffffffffffffffffffffffffff16815260200190815260200160002060008282546115559190611b78565b9250508190555083600a60000160008282546115719190611a97565b9250508190555082600a600101600082825461158d9190611b78565b9250508190555082600960003373ffffffffffffffffffffffffffffffffffffffff1673ffffffffffffffffffffffffffffffffffffffff16815260200190815260200160002060008282546115e39190611a97565b925050819055505050919050565b600081836115ff9190611b1e565b905092915050565b600081836116159190611aed565b905092915050565b6000818361162b9190611a97565b905092915050565b600081836116419190611b78565b905092915050565b60008135905061165881611c94565b92915050565b60008135905061166d81611cab565b92915050565b60006020828403121561168557600080fd5b600061169384828501611649565b91505092915050565b6000602082840312156116ae57600080fd5b60006116bc8482850161165e565b91505092915050565b600080604083850312156116d857600080fd5b60006116e68582860161165e565b92505060206116f78582860161165e565b9150509250929050565b61170a81611be8565b82525050565b600061171d600e83611a86565b91507f5a65726f204c69717569646974790000000000000000000000000000000000006000830152602082019050919050565b600061175d601983611a86565b91507f496e73756666696369656e7420706f6f6c2062616c616e6365000000000000006000830152602082019050919050565b600061179d603183611a86565b91507f41737365742076616c7565206c657373207468616e207468726573686f6c642060008301527f666f7220636f6e747269627574696f6e210000000000000000000000000000006020830152604082019050919050565b6000611803603f83611a86565b91507f456e7465726564204c5020546f6b656e2073686f756c64206265206c6573732060008301527f7468616e20746f74616c204c5020546f6b656e206f662070726f7669646572006020830152604082019050919050565b6000611869601383611a86565b91507f496e73756666696369656e7420616d6f756e74000000000000000000000000006000830152602082019050919050565b60006118a9601683611a86565b91507f416d6f756e742063616e6e6f74206265207a65726f21000000000000000000006000830152602082019050919050565b6118e581611bde565b82525050565b60006020820190506119006000830184611701565b92915050565b6000602082019050818103600083015261191f81611710565b9050919050565b6000602082019050818103600083015261193f81611750565b9050919050565b6000602082019050818103600083015261195f81611790565b9050919050565b6000602082019050818103600083015261197f816117f6565b9050919050565b6000602082019050818103600083015261199f8161185c565b9050919050565b600060208201905081810360008301526119bf8161189c565b9050919050565b60006020820190506119db60008301846118dc565b92915050565b60006040820190506119f660008301856118dc565b611a0360208301846118dc565b9392505050565b6000606082019050611a1f60008301866118dc565b611a2c60208301856118dc565b611a3960408301846118dc565b949350505050565b6000608082019050611a5660008301876118dc565b611a6360208301866118dc565b611a7060408301856118dc565b611a7d60608301846118dc565b95945050505050565b600082825260208201905092915050565b6000611aa282611bde565b9150611aad83611bde565b9250827fffffffffffffffffffffffffffffffffffffffffffffffffffffffffffffffff03821115611ae257611ae1611c36565b5b828201905092915050565b6000611af882611bde565b9150611b0383611bde565b925082611b1357611b12611c65565b5b828204905092915050565b6000611b2982611bde565b9150611b3483611bde565b9250817fffffffffffffffffffffffffffffffffffffffffffffffffffffffffffffffff0483118215151615611b6d57611b6c611c36565b5b828202905092915050565b6000611b8382611bde565b9150611b8e83611bde565b925082821015611ba157611ba0611c36565b5b828203905092915050565b6000611bb782611bbe565b9050919050565b600073ffffffffffffffffffffffffffffffffffffffff82169050919050565b6000819050919050565b6000611bf382611bfa565b9050919050565b6000611c0582611bbe565b9050919050565b6000611c1782611bde565b91506000821415611c2b57611c2a611c36565b5b600182039050919050565b7f4e487b7100000000000000000000000000000000000000000000000000000000600052601160045260246000fd5b7f4e487b7100000000000000000000000000000000000000000000000000000000600052601260045260246000fd5b611c9d81611bac565b8114611ca857600080fd5b50565b611cb481611bde565b8114611cbf57600080fd5b5056fea264697066735822122088e85ae375ac3a8e041ae00427da284204ae41f326b981e33d9f5ad21f47693c64736f6c6343000800003360806040526103e860055534801561001657600080fd5b5061101b806100266000396000f3fe608060405234801561001057600080fd5b50600436106100b45760003560e01c806370a082311161007157806370a082311461019157806395d89b41146101c1578063a9059cbb146101df578063b09f12661461020f578063d28d88521461022d578063dd62ed3e1461024b576100b4565b806306fdde03146100b9578063095ea7b3146100d757806318160ddd1461010757806323b872dd14610125578063313ce5671461015557806332424aa314610173575b600080fd5b6100c161027b565b6040516100ce9190610d90565b60405180910390f35b6100f160048036038101906100ec9190610cd3565b61030d565b6040516100fe9190610d75565b60405180910390f35b61010f6103ff565b60405161011c9190610db2565b60405180910390f35b61013f600480360381019061013a9190610c84565b610409565b60405161014c9190610d75565b60405180910390f35b61015d610774565b60405161016a9190610dcd565b60405180910390f35b61017b61078b565b6040516101889190610dcd565b60405180910390f35b6101ab60048036038101906101a69190610c1f565b61079e565b6040516101b89190610db2565b60405180910390f35b6101c96107e7565b6040516101d69190610d90565b60405180910390f35b6101f960048036038101906101f49190610cd3565b610879565b6040516102069190610d75565b60405180910390f35b610217610a52565b6040516102249190610d90565b60405180910390f35b610235610ae0565b6040516102429190610d90565b60405180910390f35b61026560048036038101906102609190610c48565b610b6e565b6040516102729190610db2565b60405180910390f35b60606000805461028a90610f16565b80601f01602080910402602001604051908101604052809291908181526020018280546102b690610f16565b80156103035780601f106102d857610100808354040283529160200191610303565b820191906000526020600020905b8154815290600101906020018083116102e657829003601f168201915b5050505050905090565b600081600460003373ffffffffffffffffffffffffffffffffffffffff1673ffffffffffffffffffffffffffffffffffffffff16815260200190815260200160002060008573ffffffffffffffffffffffffffffffffffffffff1673ffffffffffffffffffffffffffffffffffffffff168152602001908152602001600020819055508273ffffffffffffffffffffffffffffffffffffffff163373ffffffffffffffffffffffffffffffffffffffff167f8c5be1e5ebec7d5bd14f71427d1e84f3dd0314c0f7b2291e5b200ac8c7c3b925846040516103ed9190610db2565b60405180910390a36001905092915050565b6000600554905090565b6000600360008573ffffffffffffffffffffffffffffffffffffffff1673ffffffffffffffffffffffffffffffffffffffff1681526020019081526020016000205482111561045757600080fd5b600460008573ffffffffffffffffffffffffffffffffffffffff1673ffffffffffffffffffffffffffffffffffffffff16815260200190815260200160002060003373ffffffffffffffffffffffffffffffffffffffff1673ffffffffffffffffffffffffffffffffffffffff168152602001908152602001600020548211156104e057600080fd5b81600360008673ffffffffffffffffffffffffffffffffffffffff1673ffffffffffffffffffffffffffffffffffffffff1681526020019081526020016000205461052b9190610e5a565b600360008673ffffffffffffffffffffffffffffffffffffffff1673ffffffffffffffffffffffffffffffffffffffff1681526020019081526020016000208190555081600460008673ffffffffffffffffffffffffffffffffffffffff1673ffffffffffffffffffffffffffffffffffffffff16815260200190815260200160002060003373ffffffffffffffffffffffffffffffffffffffff1673ffffffffffffffffffffffffffffffffffffffff168152602001908152602001600020546105f69190610e04565b600460008673ffffffffffffffffffffffffffffffffffffffff1673ffffffffffffffffffffffffffffffffffffffff16815260200190815260200160002060003373ffffffffffffffffffffffffffffffffffffffff1673ffffffffffffffffffffffffffffffffffffffff1681526020019081526020016000208190555081600360008573ffffffffffffffffffffffffffffffffffffffff1673ffffffffffffffffffffffffffffffffffffffff168152602001908152602001600020546106c19190610e04565b600360008573ffffffffffffffffffffffffffffffffffffffff1673ffffffffffffffffffffffffffffffffffffffff168152602001908152602001600020819055508273ffffffffffffffffffffffffffffffffffffffff168473ffffffffffffffffffffffffffffffffffffffff167fddf252ad1be2c89b69c2b068fc378daa952ba7f163c4a11628f55a4df523b3ef846040516107619190610db2565b60405180910390a3600190509392505050565b6000600260009054906101000a900460ff16905090565b600260009054906101000a900460ff1681565b6000600360008373ffffffffffffffffffffffffffffffffffffffff1673ffffffffffffffffffffffffffffffffffffffff168152602001908152602001600020549050919050565b6060600180546107f690610f16565b80601f016020809104026020016040519081016040528092919081815260200182805461082290610f16565b801561086f5780601f106108445761010080835404028352916020019161086f565b820191906000526020600020905b81548152906001019060200180831161085257829003601f168201915b5050505050905090565b6000600360003373ffffffffffffffffffffffffffffffffffffffff1673ffffffffffffffffffffffffffffffffffffffff168152602001908152602001600020548211156108c757600080fd5b81600360003373ffffffffffffffffffffffffffffffffffffffff1673ffffffffffffffffffffffffffffffffffffffff168152602001908152602001600020546109129190610e5a565b600360003373ffffffffffffffffffffffffffffffffffffffff1673ffffffffffffffffffffffffffffffffffffffff1681526020019081526020016000208190555081600360008573ffffffffffffffffffffffffffffffffffffffff1673ffffffffffffffffffffffffffffffffffffffff168152602001908152602001600020546109a09190610e04565b600360008573ffffffffffffffffffffffffffffffffffffffff1673ffffffffffffffffffffffffffffffffffffffff168152602001908152602001600020819055508273ffffffffffffffffffffffffffffffffffffffff163373ffffffffffffffffffffffffffffffffffffffff167fddf252ad1be2c89b69c2b068fc378daa952ba7f163c4a11628f55a4df523b3ef84604051610a409190610db2565b60405180910390a36001905092915050565b60018054610a5f90610f16565b80601f0160208091040260200160405190810160405280929190818152602001828054610a8b90610f16565b8015610ad85780601f10610aad57610100808354040283529160200191610ad8565b820191906000526020600020905b815481529060010190602001808311610abb57829003601f168201915b505050505081565b60008054610aed90610f16565b80601f0160208091040260200160405190810160405280929190818152602001828054610b1990610f16565b8015610b665780601f10610b3b57610100808354040283529160200191610b66565b820191906000526020600020905b815481529060010190602001808311610b4957829003601f168201915b505050505081565b6000600460008473ffffffffffffffffffffffffffffffffffffffff1673ffffffffffffffffffffffffffffffffffffffff16815260200190815260200160002060008373ffffffffffffffffffffffffffffffffffffffff1673ffffffffffffffffffffffffffffffffffffffff16815260200190815260200160002054905092915050565b600081359050610c0481610fb7565b92915050565b600081359050610c1981610fce565b92915050565b600060208284031215610c3157600080fd5b6000610c3f84828501610bf5565b91505092915050565b60008060408385031215610c5b57600080fd5b6000610c6985828601610bf5565b9250506020610c7a85828601610bf5565b9150509250929050565b600080600060608486031215610c9957600080fd5b6000610ca786828701610bf5565b9350506020610cb886828701610bf5565b9250506040610cc986828701610c0a565b9150509250925092565b60008060408385031215610ce657600080fd5b6000610cf485828601610bf5565b9250506020610d0585828601610c0a565b9150509250929050565b610d1881610ea0565b82525050565b6000610d2982610de8565b610d338185610df3565b9350610d43818560208601610ee3565b610d4c81610fa6565b840191505092915050565b610d6081610ecc565b82525050565b610d6f81610ed6565b82525050565b6000602082019050610d8a6000830184610d0f565b92915050565b60006020820190508181036000830152610daa8184610d1e565b905092915050565b6000602082019050610dc76000830184610d57565b92915050565b6000602082019050610de26000830184610d66565b92915050565b600081519050919050565b600082825260208201905092915050565b6000610e0f82610ecc565b9150610e1a83610ecc565b9250827fffffffffffffffffffffffffffffffffffffffffffffffffffffffffffffffff03821115610e4f57610e4e610f48565b5b828201905092915050565b6000610e6582610ecc565b9150610e7083610ecc565b925082821015610e8357610e82610f48565b5b828203905092915050565b6000610e9982610eac565b9050919050565b60008115159050919050565b600073ffffffffffffffffffffffffffffffffffffffff82169050919050565b6000819050919050565b600060ff82169050919050565b60005b83811015610f01578082015181840152602081019050610ee6565b83811115610f10576000848401525b50505050565b60006002820490506001821680610f2e57607f821691505b60208210811415610f4257610f41610f77565b5b50919050565b7f4e487b7100000000000000000000000000000000000000000000000000000000600052601160045260246000fd5b7f4e487b7100000000000000000000000000000000000000000000000000000000600052602260045260246000fd5b6000601f19601f8301169050919050565b610fc081610e8e565b8114610fcb57600080fd5b50565b610fd781610ecc565b8114610fe257600080fd5b5056fea26469706673582212205e3ab0c418d6e03f65c2dbaf623285401b1a50302644b3e50373c0f8ae44749c64736f6c63430008000033",
  "immutableReferences": {},
  "source": "//SPDX-License-Identifier: MIT\r\n\r\npragma solidity ^0.8.0;\r\nimport \"@openzeppelin/contracts/utils/math/SafeMath.sol\";\r\nimport \"./IERC20.sol\";\r\n\r\ncontract DragonSwap{\r\n    using SafeMath for uint256;\r\n\r\n    IERC20 public token1;\r\n    IERC20 public token2;\r\n    uint256 ETH_Token;     // ERC-20 Token\r\n    uint256 DRG_Token;     // ERC-20 Token\r\n    string name1;\r\n    string name2;\r\n    uint8 decimal;\r\n\r\n    struct LiquidityPool{\r\n        uint256 total_token_1;\r\n        uint256 total_token_2;\r\n        uint256 total_LPTokens;\r\n        uint256 K;  // constant from xyk model\r\n    }\r\n\r\n    mapping (address => uint) public LP_Tokens;  // store the LP token for each provider\r\n    mapping (address => uint) public token_1_balance;  // store token 1 balance of each user (LP provider / trader)\r\n    mapping (address => uint) public token_2_balance;  // store token 2 balance of each user (LP provider / trader)\r\n    LiquidityPool public liquidityPool;     // represent the pool\r\n\r\n    constructor(){\r\n        token1 = new ERC20Basic();\r\n        token2 = new ERC20Basic();\r\n        liquidityPool.total_token_1 = 100; // 10 Ether\r\n        liquidityPool.total_token_2 = 250; // 10 Ether\r\n        name1 = token1.name();\r\n        name2 = token2.name();\r\n        liquidityPool.K = token1.balanceOf(address(this)) * token2.balanceOf(address(this));    // 10 ** 36 - constant \r\n        token_1_balance[msg.sender] = 10000;\r\n        token_2_balance[msg.sender] = 10000;\r\n    }\r\n\r\n    // Ensures that the _qty is non-zero and the user has enough balance\r\n    modifier validAmountCheck(mapping(address => uint256) storage _balance, uint256 _qty) {\r\n        require(_qty > 0, \"Amount cannot be zero!\"); //entered amount cannot be 0\r\n        require(_qty <= _balance[msg.sender], \"Insufficient amount\"); //entered amount must less than or equal to sender balance\r\n        _;\r\n    }\r\n\r\n    // Ensure the pool have token 1 and token 2 balances\r\n    modifier activePool() {\r\n        require(liquidityPool.K > 0, \"Zero Liquidity\");\r\n        _;\r\n    }\r\n\r\n    // Returns the total amount of tokens locked in the pool and the total shares issued corresponding to it\r\n    function getPoolDetails() external view returns(uint256, uint256, uint256) {\r\n        return (liquidityPool.total_token_1, liquidityPool.total_token_2, liquidityPool.total_LPTokens);\r\n    }\r\n\r\n    function LPToken(uint256 _amountToken1, uint256 _amountToken2) external pure returns(uint256 amountLPToken) {\r\n        amountLPToken = _amountToken1 + _amountToken2;\r\n        return amountLPToken;\r\n    }\r\n\r\n    // Returns the balance of the user\r\n    function checkMyBalances() external view returns(uint256 amountToken1, uint256 amountToken2, uint256 LP_Token) {\r\n        amountToken1 = token_1_balance[msg.sender];\r\n        amountToken2 = token_2_balance[msg.sender];\r\n        LP_Token = LP_Tokens[msg.sender];\r\n    }\r\n\r\n    // Returns amount of Token1 required when providing liquidity with _amountToken2 quantity of Token2\r\n    function getEquivalentToken1Estimate(uint256 _amountToken2) public view activePool returns(uint256 reqToken1) {\r\n        reqToken1 = liquidityPool.total_token_1.mul(_amountToken2).div(liquidityPool.total_token_2);\r\n    }\r\n\r\n    // Returns amount of Token2 required when providing liquidity with _amountToken1 quantity of Token1\r\n    function getEquivalentToken2Estimate(uint256 _amountToken1) public view activePool returns(uint256 reqToken2) {\r\n        reqToken2 = liquidityPool.total_token_2.mul(_amountToken1).div(liquidityPool.total_token_1);\r\n    }\r\n\r\n    /* Provide more token 1 and token 2 into the pool - Expands the pool\r\n    ** 1. Calculate LP token for LP provider such that token 1 and token 2 give the equivalent value \r\n    ** 2. Reduce amount token1 and token2 from user balances\r\n    ** 3. Increase the total amount token 1 and token 2\r\n    ** 4. Calculate new constant\r\n    ** 5. Increase total amount of LP tokens in pool\r\n    ** 6. Assign the LP token calculated into user's LP token balances\r\n    */ \r\n    function provideLiquidity(uint256 _amountToken1, uint256 _amountToken2) validAmountCheck(token_1_balance, _amountToken1) validAmountCheck(token_2_balance, _amountToken2) public returns(uint256 LP_token){\r\n\r\n        LP_token = _amountToken1 + _amountToken2;\r\n\r\n        require(LP_token > 0, \"Asset value less than threshold for contribution!\");\r\n        token_1_balance[msg.sender] -= _amountToken1;\r\n        token_2_balance[msg.sender] -= _amountToken2;\r\n\r\n        liquidityPool.total_token_1 += _amountToken1;\r\n        liquidityPool.total_token_2 += _amountToken2;\r\n\r\n        liquidityPool.K = liquidityPool.total_token_1.mul(liquidityPool.total_token_2);\r\n\r\n        liquidityPool.total_LPTokens += LP_token;\r\n        LP_Tokens[msg.sender] += LP_token;\r\n    }\r\n\r\n    // Returns the estimate of Token1 & Token2 that will be released on burning given _LPToken\r\n    function getWithdrawTokenEstimate(uint256 _LPToken) public view activePool returns(uint256 amountToken1, uint256 amountToken2) {\r\n        require(_LPToken <=LP_Tokens[msg.sender] , \"Entered LP Token should be less than total LP Token of provider\");\r\n        amountToken1 = _LPToken.mul(liquidityPool.total_token_1).div(liquidityPool.total_LPTokens); //used entered token, provider may not withdraw all the coin\r\n        amountToken2 = _LPToken.mul(liquidityPool.total_token_2).div(liquidityPool.total_LPTokens);\r\n    }\r\n\r\n    // Removes liquidity from the pool and releases corresponding Token1 & Token2 to the withdrawer\r\n    // _LPToken :entered by provider\r\n    // LP_Tokens:LP Token owned by provider\r\n    function withdraw(uint256 _LPToken) external activePool validAmountCheck(LP_Tokens, _LPToken) returns(uint256 amountToken1, uint256 amountToken2) {\r\n        (amountToken1, amountToken2) = getWithdrawTokenEstimate(_LPToken);\r\n        \r\n        LP_Tokens[msg.sender] -= _LPToken;\r\n        liquidityPool.total_LPTokens -= _LPToken;\r\n\r\n        liquidityPool.total_token_1 -= amountToken1;\r\n        liquidityPool.total_token_2 -= amountToken2;\r\n        liquidityPool.K= liquidityPool.total_token_1.mul(liquidityPool.total_token_2);\r\n\r\n        token_1_balance[msg.sender] += amountToken1;\r\n        token_2_balance[msg.sender] += amountToken2;\r\n    }\r\n\r\n    \r\n    // Returns the amount of Token2 that the user will get when swapping a given amount of Token1 for Token2\r\n    function getSwapToken1Estimate(uint256 _amountToken1) public view activePool returns(uint256 amountToken2) {\r\n        uint256 token1After = liquidityPool.total_token_1.add(_amountToken1);\r\n        uint256 token2After = liquidityPool.K.div(token1After);\r\n        amountToken2 = liquidityPool.total_token_2.sub(token2After);\r\n\r\n        // To ensure that Token2's pool is not completely depleted leading to inf:0 ratio\r\n        if(amountToken2 == liquidityPool.total_token_2) amountToken2--;\r\n    }\r\n    \r\n    // Returns the amount of Token1 that the user should swap to get _amountToken2 in return\r\n    function getSwapToken1EstimateGivenToken2(uint256 _amountToken2) public view activePool returns(uint256 amountToken1) {\r\n        require(_amountToken2 < liquidityPool.total_token_2, \"Insufficient pool balance\");\r\n        uint256 token2After = liquidityPool.total_token_2.sub(_amountToken2);\r\n        uint256 token1After = liquidityPool.K.div(token2After);\r\n        amountToken1 = token1After.sub(liquidityPool.total_token_1);\r\n    }\r\n\r\n    // Swaps given amount of Token1 to Token2 using algorithmic price determination\r\n    function swapToken1(uint256 _amountToken1) external activePool validAmountCheck(token_1_balance, _amountToken1) returns(uint256 amountToken2) {\r\n        amountToken2 = getSwapToken1Estimate(_amountToken1);\r\n\r\n        token_1_balance[msg.sender] -= _amountToken1;\r\n        liquidityPool.total_token_1 += _amountToken1;\r\n        liquidityPool.total_token_2 -= amountToken2;\r\n        token_2_balance[msg.sender] += amountToken2;\r\n    }\r\n\r\n    // Returns the amount of Token2 that the user will get when swapping a given amount of Token1 for Token2\r\n    function getSwapToken2Estimate(uint256 _amountToken2) public view activePool returns(uint256 amountToken1) {\r\n        uint256 token2After = liquidityPool.total_token_2.add(_amountToken2);\r\n        uint256 token1After = liquidityPool.K.div(token2After);\r\n        amountToken1 = liquidityPool.total_token_1.sub(token1After);\r\n\r\n        // To ensure that Token1's pool is not completely depleted leading to inf:0 ratio\r\n        if(amountToken1 == liquidityPool.total_token_1) amountToken1--;\r\n    }\r\n    \r\n    // Returns the amount of Token2 that the user should swap to get _amountToken1 in return\r\n    function getSwapToken2EstimateGivenToken1(uint256 _amountToken1) public view activePool returns(uint256 amountToken2) {\r\n        require(_amountToken1 < liquidityPool.total_token_1, \"Insufficient pool balance\");\r\n        uint256 token1After = liquidityPool.total_token_1.sub(_amountToken1);\r\n        uint256 token2After = liquidityPool.K.div(token1After);\r\n        amountToken2 = token2After.sub(liquidityPool.total_token_2);\r\n    }\r\n\r\n    // Swaps given amount of Token2 to Token1 using algorithmic price determination\r\n    function swapToken2(uint256 _amountToken2) external activePool validAmountCheck(token_2_balance, _amountToken2) returns(uint256 amountToken1) {\r\n        amountToken1 = getSwapToken2Estimate(_amountToken2);\r\n\r\n        token_2_balance[msg.sender] -= _amountToken2;\r\n        liquidityPool.total_token_2 += _amountToken2;\r\n        liquidityPool.total_token_1 -= amountToken1;\r\n        token_1_balance[msg.sender] += amountToken1;\r\n    }\r\n}\r\n",
  "sourcePath": "C:\\Users\\zixua\\Documents\\rabbitswap\\contracts\\DragonSwap.sol",
  "compiler": {
    "name": "solc",
    "version": "0.8.0+commit.c7dfd78e.Emscripten.clang"
  },
  "schemaVersion": "3.4.4",
  "updatedAt": "2022-04-10T17:11:22.775Z",
  "networkType": "ethereum",
  "devdoc": {
    "kind": "dev",
    "methods": {},
    "version": 1
  },
  "userdoc": {
    "kind": "user",
    "methods": {},
    "version": 1
  }
}